{
  "_format": "hh-sol-artifact-1",
  "contractName": "Storage",
  "sourceName": "contracts/Storage.sol",
  "abi": [
    {
      "inputs": [],
      "name": "allKeys",
      "outputs": [
        {
          "internalType": "string[]",
          "name": "",
          "type": "string[]"
        }
      ],
      "stateMutability": "view",
      "type": "function"
    },
    {
      "inputs": [],
      "name": "allKeysData",
      "outputs": [
        {
          "components": [
            {
              "internalType": "address",
              "name": "owner",
              "type": "address"
            },
            {
              "internalType": "string",
              "name": "info",
              "type": "string"
            }
          ],
          "internalType": "struct IStorage.Data[]",
          "name": "",
          "type": "tuple[]"
        }
      ],
      "stateMutability": "view",
      "type": "function"
    },
    {
      "inputs": [
        {
          "internalType": "string",
          "name": "_key",
          "type": "string"
        }
      ],
      "name": "clearData",
      "outputs": [],
      "stateMutability": "nonpayable",
      "type": "function"
    },
    {
      "inputs": [
        {
          "internalType": "string",
          "name": "_key",
          "type": "string"
        }
      ],
      "name": "getData",
      "outputs": [
        {
          "components": [
            {
              "internalType": "address",
              "name": "owner",
              "type": "address"
            },
            {
              "internalType": "string",
              "name": "info",
              "type": "string"
            }
          ],
          "internalType": "struct IStorage.Data",
          "name": "",
          "type": "tuple"
        }
      ],
      "stateMutability": "view",
      "type": "function"
    },
    {
      "inputs": [
        {
          "internalType": "string",
          "name": "_key",
          "type": "string"
        },
        {
          "components": [
            {
              "internalType": "address",
              "name": "owner",
              "type": "address"
            },
            {
              "internalType": "string",
              "name": "info",
              "type": "string"
            }
          ],
          "internalType": "struct IStorage.Data",
          "name": "_data",
          "type": "tuple"
        }
      ],
      "name": "setData",
      "outputs": [],
      "stateMutability": "nonpayable",
      "type": "function"
    }
  ],
  "bytecode": "0x608060405234801561001057600080fd5b506111d9806100206000396000f3fe608060405234801561001057600080fd5b50600436106100675760003560e01c8063a8c07fa911610050578063a8c07fa91461009f578063ae55c888146100b2578063cb965ae9146100d257600080fd5b806311d881b11461006c5780639a18600f1461008a575b600080fd5b6100746100e7565b6040516100819190610c6c565b60405180910390f35b61009d610098366004610def565b610242565b005b61009d6100ad366004610eaf565b610491565b6100c56100c0366004610eaf565b6107e9565b6040516100819190610ee4565b6100da61080d565b6040516100819190610efe565b60015460609060009067ffffffffffffffff81111561010857610108610cec565b60405190808252806020026020018201604052801561014e57816020015b6040805180820190915260008152606060208201528152602001906001900390816101265790505b50905060005b60015481101561023c5761020c6001828154811061017457610174610f71565b90600052602060002001805461018990610fa0565b80601f01602080910402602001604051908101604052809291908181526020018280546101b590610fa0565b80156102025780601f106101d757610100808354040283529160200191610202565b820191906000526020600020905b8154815290600101906020018083116101e557829003601f168201915b50505050506108e6565b82828151811061021e5761021e610f71565b602002602001018190525080806102349061101d565b915050610154565b50919050565b8151829081906102b3576040517f08c379a000000000000000000000000000000000000000000000000000000000815260206004820152600860248201527f4e4f5f56414c554500000000000000000000000000000000000000000000000060448201526064015b60405180910390fd5b600073ffffffffffffffffffffffffffffffffffffffff166000856040516102db9190611056565b9081526040519081900360200190205473ffffffffffffffffffffffffffffffffffffffff16146103ab576000846040516103169190611056565b908152604051908190036020019020543373ffffffffffffffffffffffffffffffffffffffff909116146103a6576040517f08c379a000000000000000000000000000000000000000000000000000000000815260206004820152600960248201527f464f5242494444454e000000000000000000000000000000000000000000000060448201526064016102aa565b6103ef565b60018054808201825560009190915284516103ed917fb10e2d527612073b26eecdfd717e6a320cf44b4afac2b0732d9fcbe2b7fa0cf601906020870190610a64565b505b8251604051600090610402908790611056565b908152602001604051809103902060000160006101000a81548173ffffffffffffffffffffffffffffffffffffffff021916908373ffffffffffffffffffffffffffffffffffffffff16021790555082602001516000856040516104669190611056565b9081526020016040518091039020600101908051906020019061048a929190610a64565b5050505050565b8051819081906104fd576040517f08c379a000000000000000000000000000000000000000000000000000000000815260206004820152600860248201527f4e4f5f56414c554500000000000000000000000000000000000000000000000060448201526064016102aa565b82600073ffffffffffffffffffffffffffffffffffffffff166000826040516105269190611056565b9081526040519081900360200190205473ffffffffffffffffffffffffffffffffffffffff1614156105b4576040517f08c379a000000000000000000000000000000000000000000000000000000000815260206004820152600860248201527f4e4f5f4f574e455200000000000000000000000000000000000000000000000060448201526064016102aa565b6000816040516105c49190611056565b908152604051908190036020019020543373ffffffffffffffffffffffffffffffffffffffff90911614610654576040517f08c379a000000000000000000000000000000000000000000000000000000000815260206004820152600960248201527f464f5242494444454e000000000000000000000000000000000000000000000060448201526064016102aa565b6000846040516106649190611056565b90815260405190819003602001902080547fffffffffffffffffffffffff000000000000000000000000000000000000000016815560006106a86001830182610ae8565b50506000805b600180546106bc9190611072565b8110156107ac57856040516020016106d49190611056565b60405160208183030381529060405280519060200120600182815481106106fd576106fd610f71565b906000526020600020016040516020016107179190611089565b60405160208183030381529060405280519060200120141561073857600191505b811561079a57600161074a828261115c565b8154811061075a5761075a610f71565b906000526020600020016001828154811061077757610777610f71565b9060005260206000200190805461078d90610fa0565b610798929190610b25565b505b806107a48161101d565b9150506106ae565b50801561048a5760018054806107c4576107c4611174565b6001900381819060005260206000200160006107e09190610ae8565b90555050505050565b604080518082019091526000815260606020820152610807826108e6565b92915050565b60606001805480602002602001604051908101604052809291908181526020016000905b828210156108dd57838290600052602060002001805461085090610fa0565b80601f016020809104026020016040519081016040528092919081815260200182805461087c90610fa0565b80156108c95780601f1061089e576101008083540402835291602001916108c9565b820191906000526020600020905b8154815290600101906020018083116108ac57829003601f168201915b505050505081526020019060010190610831565b50505050905090565b604080518082019091526000815260606020820152815182908190610967576040517f08c379a000000000000000000000000000000000000000000000000000000000815260206004820152600860248201527f4e4f5f56414c554500000000000000000000000000000000000000000000000060448201526064016102aa565b60405180604001604052806000866040516109829190611056565b90815260408051602092819003830190205473ffffffffffffffffffffffffffffffffffffffff168352519101906000906109be908890611056565b908152602001604051809103902060010180546109da90610fa0565b80601f0160208091040260200160405190810160405280929190818152602001828054610a0690610fa0565b8015610a535780601f10610a2857610100808354040283529160200191610a53565b820191906000526020600020905b815481529060010190602001808311610a3657829003601f168201915b505050505081525092505050919050565b828054610a7090610fa0565b90600052602060002090601f016020900481019282610a925760008555610ad8565b82601f10610aab57805160ff1916838001178555610ad8565b82800160010185558215610ad8579182015b82811115610ad8578251825591602001919060010190610abd565b50610ae4929150610ba0565b5090565b508054610af490610fa0565b6000825580601f10610b04575050565b601f016020900490600052602060002090810190610b229190610ba0565b50565b828054610b3190610fa0565b90600052602060002090601f016020900481019282610b535760008555610ad8565b82601f10610b645780548555610ad8565b82800160010185558215610ad857600052602060002091601f016020900482015b82811115610ad8578254825591600101919060010190610b85565b5b80821115610ae45760008155600101610ba1565b60005b83811015610bd0578181015183820152602001610bb8565b83811115610bdf576000848401525b50505050565b60008151808452610bfd816020860160208601610bb5565b601f017fffffffffffffffffffffffffffffffffffffffffffffffffffffffffffffffe0169290920160200192915050565b73ffffffffffffffffffffffffffffffffffffffff81511682526000602082015160406020850152610c646040850182610be5565b949350505050565b6000602080830181845280855180835260408601915060408160051b870101925083870160005b82811015610cdf577fffffffffffffffffffffffffffffffffffffffffffffffffffffffffffffffc0888603018452610ccd858351610c2f565b94509285019290850190600101610c93565b5092979650505050505050565b7f4e487b7100000000000000000000000000000000000000000000000000000000600052604160045260246000fd5b6040805190810167ffffffffffffffff81118282101715610d3e57610d3e610cec565b60405290565b600082601f830112610d5557600080fd5b813567ffffffffffffffff80821115610d7057610d70610cec565b604051601f83017fffffffffffffffffffffffffffffffffffffffffffffffffffffffffffffffe0908116603f01168101908282118183101715610db657610db6610cec565b81604052838152866020858801011115610dcf57600080fd5b836020870160208301376000602085830101528094505050505092915050565b60008060408385031215610e0257600080fd5b823567ffffffffffffffff80821115610e1a57600080fd5b610e2686838701610d44565b93506020850135915080821115610e3c57600080fd5b9084019060408287031215610e5057600080fd5b610e58610d1b565b823573ffffffffffffffffffffffffffffffffffffffff81168114610e7c57600080fd5b8152602083013582811115610e9057600080fd5b610e9c88828601610d44565b6020830152508093505050509250929050565b600060208284031215610ec157600080fd5b813567ffffffffffffffff811115610ed857600080fd5b610c6484828501610d44565b602081526000610ef76020830184610c2f565b9392505050565b6000602080830181845280855180835260408601915060408160051b870101925083870160005b82811015610cdf577fffffffffffffffffffffffffffffffffffffffffffffffffffffffffffffffc0888603018452610f5f858351610be5565b94509285019290850190600101610f25565b7f4e487b7100000000000000000000000000000000000000000000000000000000600052603260045260246000fd5b600181811c90821680610fb457607f821691505b6020821081141561023c577f4e487b7100000000000000000000000000000000000000000000000000000000600052602260045260246000fd5b7f4e487b7100000000000000000000000000000000000000000000000000000000600052601160045260246000fd5b60007fffffffffffffffffffffffffffffffffffffffffffffffffffffffffffffffff82141561104f5761104f610fee565b5060010190565b60008251611068818460208701610bb5565b9190910192915050565b60008282101561108457611084610fee565b500390565b600080835481600182811c9150808316806110a557607f831692505b60208084108214156110de577f4e487b710000000000000000000000000000000000000000000000000000000086526022600452602486fd5b8180156110f257600181146111215761114e565b7fffffffffffffffffffffffffffffffffffffffffffffffffffffffffffffff0086168952848901965061114e565b60008a81526020902060005b868110156111465781548b82015290850190830161112d565b505084890196505b509498975050505050505050565b6000821982111561116f5761116f610fee565b500190565b7f4e487b7100000000000000000000000000000000000000000000000000000000600052603160045260246000fdfea2646970667358221220e94789d2f2567f248dcf540c2f2491ec46df16a7629ef06cb053b147d5bf415064736f6c634300080c0033",
  "linkReferences": {},
  "deployedLinkReferences": {}
}