{"contractName":"Storage","abi":[{"inputs":[{"internalType":"uint256","name":"","type":"uint256"}],"name":"keys","outputs":[{"internalType":"string","name":"","type":"string"}],"stateMutability":"view","type":"function","constant":true},{"inputs":[{"internalType":"string","name":"_key","type":"string"}],"name":"getData","outputs":[{"components":[{"internalType":"address","name":"owner","type":"address"},{"internalType":"string","name":"info","type":"string"}],"internalType":"struct IStorage.Data","name":"","type":"tuple"}],"stateMutability":"view","type":"function","constant":true},{"inputs":[],"name":"allKeysData","outputs":[{"components":[{"internalType":"address","name":"owner","type":"address"},{"internalType":"string","name":"info","type":"string"}],"internalType":"struct IStorage.Data[]","name":"","type":"tuple[]"}],"stateMutability":"view","type":"function","constant":true},{"inputs":[{"internalType":"string","name":"_key","type":"string"},{"components":[{"internalType":"address","name":"owner","type":"address"},{"internalType":"string","name":"info","type":"string"}],"internalType":"struct IStorage.Data","name":"_data","type":"tuple"}],"name":"setData","outputs":[],"stateMutability":"nonpayable","type":"function"},{"inputs":[{"internalType":"string","name":"_key","type":"string"}],"name":"clearData","outputs":[],"stateMutability":"nonpayable","type":"function"}],"bytecode":"0x608060405234801561001057600080fd5b50611170806100206000396000f3fe608060405234801561001057600080fd5b50600436106100675760003560e01c80639a18600f116100505780639a18600f146100aa578063a8c07fa9146100bf578063ae55c888146100d257600080fd5b80630cb6aaf11461006c57806311d881b114610095575b600080fd5b61007f61007a366004610b93565b6100f2565b60405161008c9190610c26565b60405180910390f35b61009d61019e565b60405161008c9190610c7d565b6100bd6100b8366004610e00565b6102f9565b005b6100bd6100cd366004610ec0565b610548565b6100e56100e0366004610ec0565b6108a0565b60405161008c9190610ef5565b6001818154811061010257600080fd5b90600052602060002001600091509050805461011d90610f08565b80601f016020809104026020016040519081016040528092919081815260200182805461014990610f08565b80156101965780601f1061016b57610100808354040283529160200191610196565b820191906000526020600020905b81548152906001019060200180831161017957829003601f168201915b505050505081565b60015460609060009067ffffffffffffffff8111156101bf576101bf610cfd565b60405190808252806020026020018201604052801561020557816020015b6040805180820190915260008152606060208201528152602001906001900390816101dd5790505b50905060005b6001548110156102f3576102c36001828154811061022b5761022b610f56565b90600052602060002001805461024090610f08565b80601f016020809104026020016040519081016040528092919081815260200182805461026c90610f08565b80156102b95780601f1061028e576101008083540402835291602001916102b9565b820191906000526020600020905b81548152906001019060200180831161029c57829003601f168201915b50505050506108c4565b8282815181106102d5576102d5610f56565b602002602001018190525080806102eb90610fb4565b91505061020b565b50919050565b81518290819061036a576040517f08c379a000000000000000000000000000000000000000000000000000000000815260206004820152600860248201527f4e4f5f56414c554500000000000000000000000000000000000000000000000060448201526064015b60405180910390fd5b600073ffffffffffffffffffffffffffffffffffffffff166000856040516103929190610fed565b9081526040519081900360200190205473ffffffffffffffffffffffffffffffffffffffff1614610462576000846040516103cd9190610fed565b908152604051908190036020019020543373ffffffffffffffffffffffffffffffffffffffff9091161461045d576040517f08c379a000000000000000000000000000000000000000000000000000000000815260206004820152600960248201527f464f5242494444454e00000000000000000000000000000000000000000000006044820152606401610361565b6104a6565b60018054808201825560009190915284516104a4917fb10e2d527612073b26eecdfd717e6a320cf44b4afac2b0732d9fcbe2b7fa0cf601906020870190610a42565b505b82516040516000906104b9908790610fed565b908152602001604051809103902060000160006101000a81548173ffffffffffffffffffffffffffffffffffffffff021916908373ffffffffffffffffffffffffffffffffffffffff160217905550826020015160008560405161051d9190610fed565b90815260200160405180910390206001019080519060200190610541929190610a42565b5050505050565b8051819081906105b4576040517f08c379a000000000000000000000000000000000000000000000000000000000815260206004820152600860248201527f4e4f5f56414c55450000000000000000000000000000000000000000000000006044820152606401610361565b82600073ffffffffffffffffffffffffffffffffffffffff166000826040516105dd9190610fed565b9081526040519081900360200190205473ffffffffffffffffffffffffffffffffffffffff16141561066b576040517f08c379a000000000000000000000000000000000000000000000000000000000815260206004820152600860248201527f4e4f5f4f574e45520000000000000000000000000000000000000000000000006044820152606401610361565b60008160405161067b9190610fed565b908152604051908190036020019020543373ffffffffffffffffffffffffffffffffffffffff9091161461070b576040517f08c379a000000000000000000000000000000000000000000000000000000000815260206004820152600960248201527f464f5242494444454e00000000000000000000000000000000000000000000006044820152606401610361565b60008460405161071b9190610fed565b90815260405190819003602001902080547fffffffffffffffffffffffff0000000000000000000000000000000000000000168155600061075f6001830182610ac6565b50506000805b600180546107739190611009565b811015610863578560405160200161078b9190610fed565b60405160208183030381529060405280519060200120600182815481106107b4576107b4610f56565b906000526020600020016040516020016107ce9190611020565b6040516020818303038152906040528051906020012014156107ef57600191505b811561085157600161080182826110f3565b8154811061081157610811610f56565b906000526020600020016001828154811061082e5761082e610f56565b9060005260206000200190805461084490610f08565b61084f929190610b03565b505b8061085b81610fb4565b915050610765565b50801561054157600180548061087b5761087b61110b565b6001900381819060005260206000200160006108979190610ac6565b90555050505050565b6040805180820190915260008152606060208201526108be826108c4565b92915050565b604080518082019091526000815260606020820152815182908190610945576040517f08c379a000000000000000000000000000000000000000000000000000000000815260206004820152600860248201527f4e4f5f56414c55450000000000000000000000000000000000000000000000006044820152606401610361565b60405180604001604052806000866040516109609190610fed565b90815260408051602092819003830190205473ffffffffffffffffffffffffffffffffffffffff1683525191019060009061099c908890610fed565b908152602001604051809103902060010180546109b890610f08565b80601f01602080910402602001604051908101604052809291908181526020018280546109e490610f08565b8015610a315780601f10610a0657610100808354040283529160200191610a31565b820191906000526020600020905b815481529060010190602001808311610a1457829003601f168201915b505050505081525092505050919050565b828054610a4e90610f08565b90600052602060002090601f016020900481019282610a705760008555610ab6565b82601f10610a8957805160ff1916838001178555610ab6565b82800160010185558215610ab6579182015b82811115610ab6578251825591602001919060010190610a9b565b50610ac2929150610b7e565b5090565b508054610ad290610f08565b6000825580601f10610ae2575050565b601f016020900490600052602060002090810190610b009190610b7e565b50565b828054610b0f90610f08565b90600052602060002090601f016020900481019282610b315760008555610ab6565b82601f10610b425780548555610ab6565b82800160010185558215610ab657600052602060002091601f016020900482015b82811115610ab6578254825591600101919060010190610b63565b5b80821115610ac25760008155600101610b7f565b600060208284031215610ba557600080fd5b5035919050565b60005b83811015610bc7578181015183820152602001610baf565b83811115610bd6576000848401525b50505050565b60008151808452610bf4816020860160208601610bac565b601f017fffffffffffffffffffffffffffffffffffffffffffffffffffffffffffffffe0169290920160200192915050565b602081526000610c396020830184610bdc565b9392505050565b73ffffffffffffffffffffffffffffffffffffffff81511682526000602082015160406020850152610c756040850182610bdc565b949350505050565b6000602080830181845280855180835260408601915060408160051b870101925083870160005b82811015610cf0577fffffffffffffffffffffffffffffffffffffffffffffffffffffffffffffffc0888603018452610cde858351610c40565b94509285019290850190600101610ca4565b5092979650505050505050565b7f4e487b7100000000000000000000000000000000000000000000000000000000600052604160045260246000fd5b6040805190810167ffffffffffffffff81118282101715610d4f57610d4f610cfd565b60405290565b600082601f830112610d6657600080fd5b813567ffffffffffffffff80821115610d8157610d81610cfd565b604051601f83017fffffffffffffffffffffffffffffffffffffffffffffffffffffffffffffffe0908116603f01168101908282118183101715610dc757610dc7610cfd565b81604052838152866020858801011115610de057600080fd5b836020870160208301376000602085830101528094505050505092915050565b60008060408385031215610e1357600080fd5b823567ffffffffffffffff80821115610e2b57600080fd5b610e3786838701610d55565b93506020850135915080821115610e4d57600080fd5b9084019060408287031215610e6157600080fd5b610e69610d2c565b823573ffffffffffffffffffffffffffffffffffffffff81168114610e8d57600080fd5b8152602083013582811115610ea157600080fd5b610ead88828601610d55565b6020830152508093505050509250929050565b600060208284031215610ed257600080fd5b813567ffffffffffffffff811115610ee957600080fd5b610c7584828501610d55565b602081526000610c396020830184610c40565b600181811c90821680610f1c57607f821691505b602082108114156102f3577f4e487b7100000000000000000000000000000000000000000000000000000000600052602260045260246000fd5b7f4e487b7100000000000000000000000000000000000000000000000000000000600052603260045260246000fd5b7f4e487b7100000000000000000000000000000000000000000000000000000000600052601160045260246000fd5b60007fffffffffffffffffffffffffffffffffffffffffffffffffffffffffffffffff821415610fe657610fe6610f85565b5060010190565b60008251610fff818460208701610bac565b9190910192915050565b60008282101561101b5761101b610f85565b500390565b600080835481600182811c91508083168061103c57607f831692505b6020808410821415611075577f4e487b710000000000000000000000000000000000000000000000000000000086526022600452602486fd5b81801561108957600181146110b8576110e5565b7fffffffffffffffffffffffffffffffffffffffffffffffffffffffffffffff008616895284890196506110e5565b60008a81526020902060005b868110156110dd5781548b8201529085019083016110c4565b505084890196505b509498975050505050505050565b6000821982111561110657611106610f85565b500190565b7f4e487b7100000000000000000000000000000000000000000000000000000000600052603160045260246000fdfea2646970667358221220ac356d79f202eb161195636683d91ebb7421ec6e3394403f31cc7f264f0c4c8964736f6c634300080c0033","immutableReferences":{},"source":"// SPDX-License-Identifier: MIT\npragma solidity ^0.8.12;\n\nimport \"./interfaces/IStorage.sol\";\n\ncontract Storage is IStorage {\n    mapping(string => Data) private allData;\n    string[] public keys;\n\n    modifier onlyOwner(string memory _key) {\n        require(allData[_key].owner != address(0), 'NO_OWNER');\n        require(msg.sender == allData[_key].owner, 'FORBIDDEN');\n        _;\n    }\n\n    modifier notEmpty(string memory _value) {\n        bytes memory byteValue = bytes(_value);\n        require(byteValue.length != 0, 'NO_VALUE');\n        _;\n    }\n\n    function getData(string memory  _key) external override view returns(Data memory) {\n        return _keyData(_key);\n    }\n\n    function allKeysData() external override view returns(Data[] memory) {\n        Data[] memory _allKeysData = new Data[](keys.length);\n        for(uint x; x < keys.length; x++) {\n            _allKeysData[x] = _keyData(keys[x]);\n        }\n        return _allKeysData;\n    }\n\n    function setData(string memory _key, Data memory _data) external override notEmpty(_key) {\n        if (allData[_key].owner != address(0)) {\n            require(msg.sender == allData[_key].owner, 'FORBIDDEN');\n        } else {\n            keys.push(_key);\n        }\n        allData[_key].owner = _data.owner;\n        allData[_key].info = _data.info;\n    }\n\n    function clearData(string memory _key) external override notEmpty(_key) onlyOwner(_key) {\n        delete allData[_key];\n        bool arrayOffset;\n        for(uint x; x < keys.length - 1; x++) {\n            if (keccak256(abi.encodePacked(keys[x])) == keccak256(abi.encodePacked(_key))) {\n                arrayOffset = true;\n            }\n            if (arrayOffset) keys[x] = keys[x + 1];\n        }\n        if (arrayOffset) keys.pop();\n    }\n\n    function _keyData(string memory _key) private view notEmpty(_key) returns(Data memory _data) {\n        _data = Data({\n            owner: allData[_key].owner,\n            info: allData[_key].info\n        });\n    }\n}","sourcePath":"/home/user/Github/solidity/contracts/Storage.sol","compiler":{"name":"solc","version":"0.8.12+commit.f00d7308.Emscripten.clang"},"schemaVersion":"3.4.4","updatedAt":"2022-02-23T10:08:19.635Z","networkType":"ethereum","devdoc":{"kind":"dev","methods":{},"version":1},"userdoc":{"kind":"user","methods":{},"version":1}}