{"_format":"hh-sol-artifact-1","contractName":"AnyswapV6Router","sourceName":"contracts/AnyswapV6Router.sol","abi":[{"inputs":[{"internalType":"address","name":"_factory","type":"address"},{"internalType":"address","name":"_wNATIVE","type":"address"},{"internalType":"address","name":"_mpc","type":"address"}],"stateMutability":"nonpayable","type":"constructor"},{"anonymous":false,"inputs":[{"indexed":true,"internalType":"bytes32","name":"txhash","type":"bytes32"},{"indexed":true,"internalType":"address","name":"token","type":"address"},{"indexed":true,"internalType":"address","name":"to","type":"address"},{"indexed":false,"internalType":"uint256","name":"amount","type":"uint256"},{"indexed":false,"internalType":"uint256","name":"fromChainID","type":"uint256"},{"indexed":false,"internalType":"uint256","name":"toChainID","type":"uint256"}],"name":"LogAnySwapIn","type":"event"},{"anonymous":false,"inputs":[{"indexed":true,"internalType":"address","name":"token","type":"address"},{"indexed":true,"internalType":"address","name":"from","type":"address"},{"indexed":true,"internalType":"address","name":"to","type":"address"},{"indexed":false,"internalType":"uint256","name":"amount","type":"uint256"},{"indexed":false,"internalType":"uint256","name":"fromChainID","type":"uint256"},{"indexed":false,"internalType":"uint256","name":"toChainID","type":"uint256"}],"name":"LogAnySwapOut","type":"event"},{"anonymous":false,"inputs":[{"indexed":true,"internalType":"address","name":"token","type":"address"},{"indexed":true,"internalType":"address","name":"from","type":"address"},{"indexed":false,"internalType":"string","name":"to","type":"string"},{"indexed":false,"internalType":"uint256","name":"amount","type":"uint256"},{"indexed":false,"internalType":"uint256","name":"fromChainID","type":"uint256"},{"indexed":false,"internalType":"uint256","name":"toChainID","type":"uint256"}],"name":"LogAnySwapOut","type":"event"},{"anonymous":false,"inputs":[{"indexed":false,"internalType":"address[]","name":"path","type":"address[]"},{"indexed":true,"internalType":"address","name":"from","type":"address"},{"indexed":true,"internalType":"address","name":"to","type":"address"},{"indexed":false,"internalType":"uint256","name":"amountIn","type":"uint256"},{"indexed":false,"internalType":"uint256","name":"amountOutMin","type":"uint256"},{"indexed":false,"internalType":"uint256","name":"fromChainID","type":"uint256"},{"indexed":false,"internalType":"uint256","name":"toChainID","type":"uint256"}],"name":"LogAnySwapTradeTokensForNative","type":"event"},{"anonymous":false,"inputs":[{"indexed":false,"internalType":"address[]","name":"path","type":"address[]"},{"indexed":true,"internalType":"address","name":"from","type":"address"},{"indexed":true,"internalType":"address","name":"to","type":"address"},{"indexed":false,"internalType":"uint256","name":"amountIn","type":"uint256"},{"indexed":false,"internalType":"uint256","name":"amountOutMin","type":"uint256"},{"indexed":false,"internalType":"uint256","name":"fromChainID","type":"uint256"},{"indexed":false,"internalType":"uint256","name":"toChainID","type":"uint256"}],"name":"LogAnySwapTradeTokensForTokens","type":"event"},{"anonymous":false,"inputs":[{"indexed":true,"internalType":"address","name":"oldMPC","type":"address"},{"indexed":true,"internalType":"address","name":"newMPC","type":"address"},{"indexed":true,"internalType":"uint256","name":"effectiveTime","type":"uint256"},{"indexed":false,"internalType":"uint256","name":"chainID","type":"uint256"}],"name":"LogChangeMPC","type":"event"},{"anonymous":false,"inputs":[{"indexed":true,"internalType":"address","name":"oldRouter","type":"address"},{"indexed":true,"internalType":"address","name":"newRouter","type":"address"},{"indexed":false,"internalType":"uint256","name":"chainID","type":"uint256"}],"name":"LogChangeRouter","type":"event"},{"inputs":[{"internalType":"address","name":"token","type":"address"},{"internalType":"uint256","name":"amount","type":"uint256"}],"name":"anySwapFeeTo","outputs":[],"stateMutability":"nonpayable","type":"function"},{"inputs":[{"internalType":"bytes32[]","name":"txs","type":"bytes32[]"},{"internalType":"address[]","name":"tokens","type":"address[]"},{"internalType":"address[]","name":"to","type":"address[]"},{"internalType":"uint256[]","name":"amounts","type":"uint256[]"},{"internalType":"uint256[]","name":"fromChainIDs","type":"uint256[]"}],"name":"anySwapIn","outputs":[],"stateMutability":"nonpayable","type":"function"},{"inputs":[{"internalType":"bytes32","name":"txs","type":"bytes32"},{"internalType":"address","name":"token","type":"address"},{"internalType":"address","name":"to","type":"address"},{"internalType":"uint256","name":"amount","type":"uint256"},{"internalType":"uint256","name":"fromChainID","type":"uint256"}],"name":"anySwapIn","outputs":[],"stateMutability":"nonpayable","type":"function"},{"inputs":[{"internalType":"bytes32","name":"txs","type":"bytes32"},{"internalType":"address","name":"token","type":"address"},{"internalType":"address","name":"to","type":"address"},{"internalType":"uint256","name":"amount","type":"uint256"},{"internalType":"uint256","name":"fromChainID","type":"uint256"}],"name":"anySwapInAuto","outputs":[],"stateMutability":"nonpayable","type":"function"},{"inputs":[{"internalType":"bytes32","name":"txs","type":"bytes32"},{"internalType":"uint256","name":"amountIn","type":"uint256"},{"internalType":"uint256","name":"amountOutMin","type":"uint256"},{"internalType":"address[]","name":"path","type":"address[]"},{"internalType":"address","name":"to","type":"address"},{"internalType":"uint256","name":"deadline","type":"uint256"},{"internalType":"uint256","name":"fromChainID","type":"uint256"}],"name":"anySwapInExactTokensForNative","outputs":[{"internalType":"uint256[]","name":"amounts","type":"uint256[]"}],"stateMutability":"nonpayable","type":"function"},{"inputs":[{"internalType":"bytes32","name":"txs","type":"bytes32"},{"internalType":"uint256","name":"amountIn","type":"uint256"},{"internalType":"uint256","name":"amountOutMin","type":"uint256"},{"internalType":"address[]","name":"path","type":"address[]"},{"internalType":"address","name":"to","type":"address"},{"internalType":"uint256","name":"deadline","type":"uint256"},{"internalType":"uint256","name":"fromChainID","type":"uint256"}],"name":"anySwapInExactTokensForTokens","outputs":[{"internalType":"uint256[]","name":"amounts","type":"uint256[]"}],"stateMutability":"nonpayable","type":"function"},{"inputs":[{"internalType":"bytes32","name":"txs","type":"bytes32"},{"internalType":"address","name":"token","type":"address"},{"internalType":"address","name":"to","type":"address"},{"internalType":"uint256","name":"amount","type":"uint256"},{"internalType":"uint256","name":"fromChainID","type":"uint256"}],"name":"anySwapInUnderlying","outputs":[],"stateMutability":"nonpayable","type":"function"},{"inputs":[{"internalType":"address","name":"token","type":"address"},{"internalType":"address","name":"to","type":"address"},{"internalType":"uint256","name":"amount","type":"uint256"},{"internalType":"uint256","name":"toChainID","type":"uint256"}],"name":"anySwapOut","outputs":[],"stateMutability":"nonpayable","type":"function"},{"inputs":[{"internalType":"address","name":"token","type":"address"},{"internalType":"string","name":"to","type":"string"},{"internalType":"uint256","name":"amount","type":"uint256"},{"internalType":"uint256","name":"toChainID","type":"uint256"}],"name":"anySwapOut","outputs":[],"stateMutability":"nonpayable","type":"function"},{"inputs":[{"internalType":"address[]","name":"tokens","type":"address[]"},{"internalType":"address[]","name":"to","type":"address[]"},{"internalType":"uint256[]","name":"amounts","type":"uint256[]"},{"internalType":"uint256[]","name":"toChainIDs","type":"uint256[]"}],"name":"anySwapOut","outputs":[],"stateMutability":"nonpayable","type":"function"},{"inputs":[{"internalType":"uint256","name":"amountIn","type":"uint256"},{"internalType":"uint256","name":"amountOutMin","type":"uint256"},{"internalType":"address[]","name":"path","type":"address[]"},{"internalType":"address","name":"to","type":"address"},{"internalType":"uint256","name":"deadline","type":"uint256"},{"internalType":"uint256","name":"toChainID","type":"uint256"}],"name":"anySwapOutExactTokensForNative","outputs":[],"stateMutability":"nonpayable","type":"function"},{"inputs":[{"internalType":"uint256","name":"amountIn","type":"uint256"},{"internalType":"uint256","name":"amountOutMin","type":"uint256"},{"internalType":"address[]","name":"path","type":"address[]"},{"internalType":"address","name":"to","type":"address"},{"internalType":"uint256","name":"deadline","type":"uint256"},{"internalType":"uint256","name":"toChainID","type":"uint256"}],"name":"anySwapOutExactTokensForNativeUnderlying","outputs":[],"stateMutability":"nonpayable","type":"function"},{"inputs":[{"internalType":"uint256","name":"amountIn","type":"uint256"},{"internalType":"uint256","name":"amountOutMin","type":"uint256"},{"internalType":"address[]","name":"path","type":"address[]"},{"internalType":"address","name":"to","type":"address"},{"internalType":"uint256","name":"deadline","type":"uint256"},{"internalType":"uint256","name":"toChainID","type":"uint256"}],"name":"anySwapOutExactTokensForTokens","outputs":[],"stateMutability":"nonpayable","type":"function"},{"inputs":[{"internalType":"uint256","name":"amountIn","type":"uint256"},{"internalType":"uint256","name":"amountOutMin","type":"uint256"},{"internalType":"address[]","name":"path","type":"address[]"},{"internalType":"address","name":"to","type":"address"},{"internalType":"uint256","name":"deadline","type":"uint256"},{"internalType":"uint256","name":"toChainID","type":"uint256"}],"name":"anySwapOutExactTokensForTokensUnderlying","outputs":[],"stateMutability":"nonpayable","type":"function"},{"inputs":[{"internalType":"address","name":"token","type":"address"},{"internalType":"string","name":"to","type":"string"},{"internalType":"uint256","name":"toChainID","type":"uint256"}],"name":"anySwapOutNative","outputs":[],"stateMutability":"payable","type":"function"},{"inputs":[{"internalType":"address","name":"token","type":"address"},{"internalType":"address","name":"to","type":"address"},{"internalType":"uint256","name":"toChainID","type":"uint256"}],"name":"anySwapOutNative","outputs":[],"stateMutability":"payable","type":"function"},{"inputs":[{"internalType":"address","name":"token","type":"address"},{"internalType":"string","name":"to","type":"string"},{"internalType":"uint256","name":"amount","type":"uint256"},{"internalType":"uint256","name":"toChainID","type":"uint256"}],"name":"anySwapOutUnderlying","outputs":[],"stateMutability":"nonpayable","type":"function"},{"inputs":[{"internalType":"address","name":"token","type":"address"},{"internalType":"address","name":"to","type":"address"},{"internalType":"uint256","name":"amount","type":"uint256"},{"internalType":"uint256","name":"toChainID","type":"uint256"}],"name":"anySwapOutUnderlying","outputs":[],"stateMutability":"nonpayable","type":"function"},{"inputs":[{"internalType":"address","name":"token","type":"address"}],"name":"applyMinter","outputs":[],"stateMutability":"nonpayable","type":"function"},{"inputs":[],"name":"cID","outputs":[{"internalType":"uint256","name":"id","type":"uint256"}],"stateMutability":"view","type":"function"},{"inputs":[{"internalType":"address","name":"newMPC","type":"address"}],"name":"changeMPC","outputs":[{"internalType":"bool","name":"","type":"bool"}],"stateMutability":"nonpayable","type":"function"},{"inputs":[{"internalType":"address","name":"token","type":"address"},{"internalType":"address","name":"newVault","type":"address"}],"name":"changeVault","outputs":[{"internalType":"bool","name":"","type":"bool"}],"stateMutability":"nonpayable","type":"function"},{"inputs":[{"internalType":"address","name":"token","type":"address"},{"internalType":"address","name":"to","type":"address"}],"name":"depositNative","outputs":[{"internalType":"uint256","name":"","type":"uint256"}],"stateMutability":"payable","type":"function"},{"inputs":[],"name":"enableSwapTrade","outputs":[{"internalType":"bool","name":"","type":"bool"}],"stateMutability":"view","type":"function"},{"inputs":[],"name":"factory","outputs":[{"internalType":"address","name":"","type":"address"}],"stateMutability":"view","type":"function"},{"inputs":[{"internalType":"uint256","name":"amountOut","type":"uint256"},{"internalType":"uint256","name":"reserveIn","type":"uint256"},{"internalType":"uint256","name":"reserveOut","type":"uint256"}],"name":"getAmountIn","outputs":[{"internalType":"uint256","name":"amountIn","type":"uint256"}],"stateMutability":"pure","type":"function"},{"inputs":[{"internalType":"uint256","name":"amountIn","type":"uint256"},{"internalType":"uint256","name":"reserveIn","type":"uint256"},{"internalType":"uint256","name":"reserveOut","type":"uint256"}],"name":"getAmountOut","outputs":[{"internalType":"uint256","name":"amountOut","type":"uint256"}],"stateMutability":"pure","type":"function"},{"inputs":[{"internalType":"uint256","name":"amountOut","type":"uint256"},{"internalType":"address[]","name":"path","type":"address[]"}],"name":"getAmountsIn","outputs":[{"internalType":"uint256[]","name":"amounts","type":"uint256[]"}],"stateMutability":"view","type":"function"},{"inputs":[{"internalType":"uint256","name":"amountIn","type":"uint256"},{"internalType":"address[]","name":"path","type":"address[]"}],"name":"getAmountsOut","outputs":[{"internalType":"uint256[]","name":"amounts","type":"uint256[]"}],"stateMutability":"view","type":"function"},{"inputs":[],"name":"mpc","outputs":[{"internalType":"address","name":"","type":"address"}],"stateMutability":"view","type":"function"},{"inputs":[{"internalType":"uint256","name":"amountA","type":"uint256"},{"internalType":"uint256","name":"reserveA","type":"uint256"},{"internalType":"uint256","name":"reserveB","type":"uint256"}],"name":"quote","outputs":[{"internalType":"uint256","name":"amountB","type":"uint256"}],"stateMutability":"pure","type":"function"},{"inputs":[{"internalType":"address","name":"token","type":"address"},{"internalType":"address","name":"_auth","type":"address"}],"name":"revokeMinter","outputs":[],"stateMutability":"nonpayable","type":"function"},{"inputs":[{"internalType":"bool","name":"enable","type":"bool"}],"name":"setEnableSwapTrade","outputs":[],"stateMutability":"nonpayable","type":"function"},{"inputs":[{"internalType":"address","name":"token","type":"address"},{"internalType":"address","name":"_auth","type":"address"}],"name":"setMinter","outputs":[],"stateMutability":"nonpayable","type":"function"},{"inputs":[],"name":"wNATIVE","outputs":[{"internalType":"address","name":"","type":"address"}],"stateMutability":"view","type":"function"},{"inputs":[{"internalType":"address","name":"token","type":"address"},{"internalType":"uint256","name":"amount","type":"uint256"},{"internalType":"address","name":"to","type":"address"}],"name":"withdrawNative","outputs":[{"internalType":"uint256","name":"","type":"uint256"}],"stateMutability":"nonpayable","type":"function"},{"stateMutability":"payable","type":"receive"}],"bytecode":"0x60c06040523480156200001157600080fd5b506040516200520638038062005206833981016040819052620000349162000095565b600180546001600160a01b039092166001600160a01b0319909216919091179055426002556001600160601b0319606092831b8116608052911b1660a052620000df565b80516001600160a01b03811681146200009057600080fd5b919050565b600080600060608486031215620000ab57600080fd5b620000b68462000078565b9250620000c66020850162000078565b9150620000d66040850162000078565b90509250925092565b60805160601c60a05160601c61505a620001ac6000396000818161026301528181610599015281816108e8015281816109ef015281816116e1015281816118dc015281816119b201528181611ac901528181611b76015281816121d9015281816122f00152818161239d0152818161254c0152818161272e01528181612aed01528181612c040152612cb101526000818161064b01528181610e7d0152818161112a015281816112520152818161178d01528181612e7601528181613c5f0152613caf015261505a6000f3fe6080604052600436106102535760003560e01c8063825bb13c11610138578063ad615dec116100b0578063d8b9f6101161007f578063dcfb77b111610064578063dcfb77b1146106ed578063edbdf5e21461070d578063f75c26641461072d57600080fd5b8063d8b9f610146106ad578063d9e35bb2146106cd57600080fd5b8063ad615dec14610619578063c45a015514610639578063c604b0b81461066d578063d06ca61f1461068d57600080fd5b806387cc6e2f1161010757806399a2f2d7116100ec57806399a2f2d7146105d35780639f122d6c146105e6578063a5e565711461060657600080fd5b806387cc6e2f146105675780638fd903f51461058757600080fd5b8063825bb13c146104e7578063832e94921461050757806385f8c2591461052757806387bafe5f1461054757600080fd5b8063353cb3a8116101cb578063540dd52c1161019a57806365782f561161017f57806365782f56146104945780636a453972146104b4578063701bb891146104d457600080fd5b8063540dd52c146104615780635b7b018c1461047457600080fd5b8063353cb3a8146103d75780633f88de8914610401578063456862aa1461042157806352a397d51461044157600080fd5b80630bb5720311610222578063241dc2df11610207578063241dc2df1461037757806325121b76146103975780632fc1e728146103b757600080fd5b80630bb572031461032a5780631f00ca741461034a57600080fd5b80630175b1c414610297578063049b4e7e146102b7578063054d50d4146102d7578063085c6d5e1461030a57600080fd5b3661029257336001600160a01b037f0000000000000000000000000000000000000000000000000000000000000000161461029057610290614f16565b005b600080fd5b3480156102a357600080fd5b506102906102b23660046149af565b610742565b3480156102c357600080fd5b506102906102d23660046146f2565b610b0d565b3480156102e357600080fd5b506102f76102f2366004614c26565b610be4565b6040519081526020015b60405180910390f35b34801561031657600080fd5b50610290610325366004614975565b610bf9565b34801561033657600080fd5b50610290610345366004614ba9565b610c92565b34801561035657600080fd5b5061036a610365366004614ae4565b610e76565b6040516103019190614d22565b34801561038357600080fd5b50610290610392366004614653565b610eac565b3480156103a357600080fd5b506102906103b2366004614884565b610ebf565b3480156103c357600080fd5b5061036a6103d2366004614a01565b610ff2565b3480156103e357600080fd5b506000546103f19060ff1681565b6040519015158152602001610301565b34801561040d57600080fd5b5061029061041c3660046149af565b611333565b34801561042d57600080fd5b506103f161043c3660046145d9565b611450565b34801561044d57600080fd5b5061036a61045c366004614a01565b6115a4565b61029061046f366004614699565b6119b0565b34801561048057600080fd5b506103f161048f366004614598565b611c4f565b3480156104a057600080fd5b506102906104af366004614ba9565b611de5565b3480156104c057600080fd5b506102906104cf366004614ba9565b611fa8565b6102f76104e23660046145d9565b6121d5565b3480156104f357600080fd5b506102906105023660046149af565b6124cc565b34801561051357600080fd5b506102f761052236600461477e565b612548565b34801561053357600080fd5b506102f7610542366004614c26565b6127a4565b34801561055357600080fd5b506102906105623660046145d9565b6127b1565b34801561057357600080fd5b50610290610582366004614752565b61288a565b34801561059357600080fd5b506105bb7f000000000000000000000000000000000000000000000000000000000000000081565b6040516001600160a01b039091168152602001610301565b3480156105df57600080fd5b50466102f7565b3480156105f257600080fd5b506102906106013660046145d9565b612a3c565b610290610614366004614612565b612aeb565b34801561062557600080fd5b506102f7610634366004614c26565b612d94565b34801561064557600080fd5b506105bb7f000000000000000000000000000000000000000000000000000000000000000081565b34801561067957600080fd5b506102906106883660046146f2565b612da1565b34801561069957600080fd5b5061036a6106a8366004614ae4565b612e6f565b3480156106b957600080fd5b506102906106c8366004614ba9565b612e9c565b3480156106d957600080fd5b506102906106e8366004614598565b613053565b3480156106f957600080fd5b506102906107083660046147c0565b61310d565b34801561071957600080fd5b50610290610728366004614653565b6131be565b34801561073957600080fd5b506105bb613255565b61074a613255565b6001600160a01b0316336001600160a01b0316146107af5760405162461bcd60e51b815260206004820152601a60248201527f416e79737761705633526f757465723a20464f5242494444454e00000000000060448201526064015b60405180910390fd5b6107bc8585858585613285565b60008490506000816001600160a01b0316636f307dc36040518163ffffffff1660e01b815260040160206040518083038186803b1580156107fc57600080fd5b505afa158015610810573d6000803e3d6000fd5b505050506040513d601f19601f8201168201806040525081019061083491906145bc565b90506001600160a01b038116158015906108e157506040517f70a082310000000000000000000000000000000000000000000000000000000081526001600160a01b0387811660048301528591908316906370a082319060240160206040518083038186803b1580156108a657600080fd5b505afa1580156108ba573d6000803e3d6000fd5b505050506040513d601f19601f820116820180604052508101906108de9190614acb565b10155b15610b04577f00000000000000000000000000000000000000000000000000000000000000006001600160a01b0316816001600160a01b03161415610a62576040517e39d6ec0000000000000000000000000000000000000000000000000000000081526001600160a01b038681166004830152602482018690523060448301528316906239d6ec90606401602060405180830381600087803b15801561098757600080fd5b505af115801561099b573d6000803e3d6000fd5b505050506040513d601f19601f820116820180604052508101906109bf9190614acb565b506040517f2e1a7d4d000000000000000000000000000000000000000000000000000000008152600481018590527f00000000000000000000000000000000000000000000000000000000000000006001600160a01b031690632e1a7d4d90602401600060405180830381600087803b158015610a3b57600080fd5b505af1158015610a4f573d6000803e3d6000fd5b50505050610a5d8585613386565b610b04565b6040517e39d6ec0000000000000000000000000000000000000000000000000000000081526001600160a01b03868116600483018190526024830187905260448301528316906239d6ec90606401602060405180830381600087803b158015610aca57600080fd5b505af1158015610ade573d6000803e3d6000fd5b505050506040513d601f19601f82011682018060405250810190610b029190614acb565b505b50505050505050565b610b95338584876001600160a01b0316636f307dc36040518163ffffffff1660e01b815260040160206040518083038186803b158015610b4c57600080fd5b505afa158015610b60573d6000803e3d6000fd5b505050506040513d601f19601f82011682018060405250810190610b8491906145bc565b6001600160a01b031692919061346e565b336001600160a01b0385167f409e0ad946b19f77602d6cf11d59e1796ddaa4828159a0b4fb7fa2ff6b161b798585465b86604051610bd69493929190614d66565b60405180910390a350505050565b6000610bf18484846134f6565b949350505050565b610c01613255565b6001600160a01b0316336001600160a01b031614610c615760405162461bcd60e51b815260206004820152601a60248201527f416e79737761705633526f757465723a20464f5242494444454e00000000000060448201526064016107a6565b600080547fffffffffffffffffffffffffffffffffffffffffffffffffffffffffffffff0016911515919091179055565b60005460ff16610d0a5760405162461bcd60e51b815260206004820152602360248201527f416e79737761705636526f757465723a2053776170547261646520646973616260448201527f6c6564000000000000000000000000000000000000000000000000000000000060648201526084016107a6565b8142811015610d5b5760405162461bcd60e51b815260206004820152601860248201527f416e79737761705633526f757465723a2045585049524544000000000000000060448201526064016107a6565b85856000818110610d6e57610d6e614fa3565b9050602002016020810190610d839190614598565b6040517f9dc29fac000000000000000000000000000000000000000000000000000000008152336004820152602481018a90526001600160a01b039190911690639dc29fac90604401602060405180830381600087803b158015610de657600080fd5b505af1158015610dfa573d6000803e3d6000fd5b505050506040513d601f19601f82011682018060405250810190610e1e9190614992565b506001600160a01b038416337ffea6abdf4fd32f20966dff7619354cd82cd43dc78a3bee479f04c74dbfc585b388888c8c465b89604051610e6496959493929190614cb8565b60405180910390a35050505050505050565b6060610ea37f0000000000000000000000000000000000000000000000000000000000000000848461363c565b90505b92915050565b610eb933858585856137d2565b50505050565b610ec7613255565b6001600160a01b0316336001600160a01b031614610f275760405162461bcd60e51b815260206004820152601a60248201527f416e79737761705633526f757465723a20464f5242494444454e00000000000060448201526064016107a6565b60005b87811015610fe557610fd38b8b83818110610f4757610f47614fa3565b905060200201358a8a84818110610f6057610f60614fa3565b9050602002016020810190610f759190614598565b898985818110610f8757610f87614fa3565b9050602002016020810190610f9c9190614598565b888886818110610fae57610fae614fa3565b90506020020135878787818110610fc757610fc7614fa3565b90506020020135613285565b80610fdd81614edd565b915050610f2a565b5050505050505050505050565b6060610ffc613255565b6001600160a01b0316336001600160a01b03161461105c5760405162461bcd60e51b815260206004820152601a60248201527f416e79737761705633526f757465723a20464f5242494444454e00000000000060448201526064016107a6565b60005460ff166110d45760405162461bcd60e51b815260206004820152602360248201527f416e79737761705636526f757465723a2053776170547261646520646973616260448201527f6c6564000000000000000000000000000000000000000000000000000000000060648201526084016107a6565b82428110156111255760405162461bcd60e51b815260206004820152601860248201527f416e79737761705633526f757465723a2045585049524544000000000000000060448201526064016107a6565b6111837f00000000000000000000000000000000000000000000000000000000000000008a8989808060200260200160405190810160405280939291908181526020018383602002808284376000920191909152506138d192505050565b91508782600184516111959190614e65565b815181106111a5576111a5614fa3565b602002602001015110156112215760405162461bcd60e51b815260206004820152602d60248201527f5375736869737761705632526f757465723a20494e53554646494349454e545f60448201527f4f55545055545f414d4f554e540000000000000000000000000000000000000060648201526084016107a6565b6112e78a8888600081811061123857611238614fa3565b905060200201602081019061124d9190614598565b6112c67f00000000000000000000000000000000000000000000000000000000000000008b8b600081811061128457611284614fa3565b90506020020160208101906112999190614598565b8c8c60018181106112ac576112ac614fa3565b90506020020160208101906112c19190614598565b613a47565b856000815181106112d9576112d9614fa3565b602002602001015187613285565b611326828888808060200260200160405190810160405280939291908181526020018383602002808284376000920191909152508a9250613b7c915050565b5098975050505050505050565b61133b613255565b6001600160a01b0316336001600160a01b03161461139b5760405162461bcd60e51b815260206004820152601a60248201527f416e79737761705633526f757465723a20464f5242494444454e00000000000060448201526064016107a6565b6113a88585858585613285565b6040517e39d6ec0000000000000000000000000000000000000000000000000000000081526001600160a01b03848116600483018190526024830185905260448301528516906239d6ec90606401602060405180830381600087803b15801561141057600080fd5b505af1158015611424573d6000803e3d6000fd5b505050506040513d601f19601f820116820180604052508101906114489190614acb565b505050505050565b600061145a613255565b6001600160a01b0316336001600160a01b0316146114ba5760405162461bcd60e51b815260206004820152601a60248201527f416e79737761705633526f757465723a20464f5242494444454e00000000000060448201526064016107a6565b6001600160a01b0382166115105760405162461bcd60e51b815260206004820152601d60248201527f416e79737761705633526f757465723a2061646472657373283078302900000060448201526064016107a6565b6040517f60e232a90000000000000000000000000000000000000000000000000000000081526001600160a01b0383811660048301528416906360e232a990602401602060405180830381600087803b15801561156c57600080fd5b505af1158015611580573d6000803e3d6000fd5b505050506040513d601f19601f82011682018060405250810190610ea39190614992565b60606115ae613255565b6001600160a01b0316336001600160a01b03161461160e5760405162461bcd60e51b815260206004820152601a60248201527f416e79737761705633526f757465723a20464f5242494444454e00000000000060448201526064016107a6565b60005460ff166116865760405162461bcd60e51b815260206004820152602360248201527f416e79737761705636526f757465723a2053776170547261646520646973616260448201527f6c6564000000000000000000000000000000000000000000000000000000000060648201526084016107a6565b82428110156116d75760405162461bcd60e51b815260206004820152601860248201527f416e79737761705633526f757465723a2045585049524544000000000000000060448201526064016107a6565b6001600160a01b037f000000000000000000000000000000000000000000000000000000000000000016878761170e600182614e65565b81811061171d5761171d614fa3565b90506020020160208101906117329190614598565b6001600160a01b0316146117885760405162461bcd60e51b815260206004820152601d60248201527f416e79737761705633526f757465723a20494e56414c49445f5041544800000060448201526064016107a6565b6117e67f00000000000000000000000000000000000000000000000000000000000000008a8989808060200260200160405190810160405280939291908181526020018383602002808284376000920191909152506138d192505050565b91508782600184516117f89190614e65565b8151811061180857611808614fa3565b602002602001015110156118845760405162461bcd60e51b815260206004820152602b60248201527f416e79737761705633526f757465723a20494e53554646494349454e545f4f5560448201527f545055545f414d4f554e5400000000000000000000000000000000000000000060648201526084016107a6565b61189b8a8888600081811061123857611238614fa3565b6118da82888880806020026020016040519081016040528093929190818152602001838360200280828437600092019190915250309250613b7c915050565b7f00000000000000000000000000000000000000000000000000000000000000006001600160a01b0316632e1a7d4d83600185516119189190614e65565b8151811061192857611928614fa3565b60200260200101516040518263ffffffff1660e01b815260040161194e91815260200190565b600060405180830381600087803b15801561196857600080fd5b505af115801561197c573d6000803e3d6000fd5b505050506113268583600185516119939190614e65565b815181106119a3576119a3614fa3565b6020026020010151613386565b7f00000000000000000000000000000000000000000000000000000000000000006001600160a01b0316836001600160a01b0316636f307dc36040518163ffffffff1660e01b815260040160206040518083038186803b158015611a1357600080fd5b505afa158015611a27573d6000803e3d6000fd5b505050506040513d601f19601f82011682018060405250810190611a4b91906145bc565b6001600160a01b031614611ac75760405162461bcd60e51b815260206004820152602a60248201527f416e79737761705633526f757465723a20756e6465726c79696e67206973206e60448201527f6f7420774e41544956450000000000000000000000000000000000000000000060648201526084016107a6565b7f00000000000000000000000000000000000000000000000000000000000000006001600160a01b031663d0e30db0346040518263ffffffff1660e01b81526004016000604051808303818588803b158015611b2257600080fd5b505af1158015611b36573d6000803e3d6000fd5b50506040517fa9059cbb0000000000000000000000000000000000000000000000000000000081526001600160a01b0387811660048301523460248301527f000000000000000000000000000000000000000000000000000000000000000016935063a9059cbb92506044019050602060405180830381600087803b158015611bbe57600080fd5b505af1158015611bd2573d6000803e3d6000fd5b505050506040513d601f19601f82011682018060405250810190611bf69190614992565b611c0257611c02614f16565b336001600160a01b0384167f409e0ad946b19f77602d6cf11d59e1796ddaa4828159a0b4fb7fa2ff6b161b7984344686604051611c429493929190614d66565b60405180910390a3505050565b6000611c59613255565b6001600160a01b0316336001600160a01b031614611cb95760405162461bcd60e51b815260206004820152601a60248201527f416e79737761705633526f757465723a20464f5242494444454e00000000000060448201526064016107a6565b6001600160a01b038216611d0f5760405162461bcd60e51b815260206004820152601d60248201527f416e79737761705633526f757465723a2061646472657373283078302900000060448201526064016107a6565b611d17613255565b600080547fffffffffffffffffffffff0000000000000000000000000000000000000000ff166101006001600160a01b0393841602179055600180547fffffffffffffffffffffffff000000000000000000000000000000000000000016918416919091179055611d8b426202a300614e12565b60028190556001546000546001600160a01b0391821691610100909104167fcda32bc39904597666dfa9f9c845714756e1ffffad55b52e0d344673a21981214660405190815260200160405180910390a45060015b919050565b60005460ff16611e5d5760405162461bcd60e51b815260206004820152602360248201527f416e79737761705636526f757465723a2053776170547261646520646973616260448201527f6c6564000000000000000000000000000000000000000000000000000000000060648201526084016107a6565b8142811015611eae5760405162461bcd60e51b815260206004820152601860248201527f416e79737761705633526f757465723a2045585049524544000000000000000060448201526064016107a6565b85856000818110611ec157611ec1614fa3565b9050602002016020810190611ed69190614598565b6040517f9dc29fac000000000000000000000000000000000000000000000000000000008152336004820152602481018a90526001600160a01b039190911690639dc29fac90604401602060405180830381600087803b158015611f3957600080fd5b505af1158015611f4d573d6000803e3d6000fd5b505050506040513d601f19601f82011682018060405250810190611f719190614992565b506001600160a01b038416337f278277e0209c347189add7bd92411973b5f6b8644f7ac62ea1be984ce993f8f488888c8c46610e51565b60005460ff166120205760405162461bcd60e51b815260206004820152602360248201527f416e79737761705636526f757465723a2053776170547261646520646973616260448201527f6c6564000000000000000000000000000000000000000000000000000000000060648201526084016107a6565b81428110156120715760405162461bcd60e51b815260206004820152601860248201527f416e79737761705633526f757465723a2045585049524544000000000000000060448201526064016107a6565b6120fe338787600081811061208857612088614fa3565b905060200201602081019061209d9190614598565b8a898960008181106120b1576120b1614fa3565b90506020020160208101906120c69190614598565b6001600160a01b0316636f307dc36040518163ffffffff1660e01b815260040160206040518083038186803b158015610b4c57600080fd5b8585600081811061211157612111614fa3565b90506020020160208101906121269190614598565b6040517fbebbf4d0000000000000000000000000000000000000000000000000000000008152600481018a90523360248201526001600160a01b03919091169063bebbf4d090604401602060405180830381600087803b15801561218957600080fd5b505af115801561219d573d6000803e3d6000fd5b505050506040513d601f19601f820116820180604052508101906121c19190614acb565b5085856000818110611ec157611ec1614fa3565b60007f00000000000000000000000000000000000000000000000000000000000000006001600160a01b0316836001600160a01b0316636f307dc36040518163ffffffff1660e01b815260040160206040518083038186803b15801561223a57600080fd5b505afa15801561224e573d6000803e3d6000fd5b505050506040513d601f19601f8201168201806040525081019061227291906145bc565b6001600160a01b0316146122ee5760405162461bcd60e51b815260206004820152602a60248201527f416e79737761705633526f757465723a20756e6465726c79696e67206973206e60448201527f6f7420774e41544956450000000000000000000000000000000000000000000060648201526084016107a6565b7f00000000000000000000000000000000000000000000000000000000000000006001600160a01b031663d0e30db0346040518263ffffffff1660e01b81526004016000604051808303818588803b15801561234957600080fd5b505af115801561235d573d6000803e3d6000fd5b50506040517fa9059cbb0000000000000000000000000000000000000000000000000000000081526001600160a01b0387811660048301523460248301527f000000000000000000000000000000000000000000000000000000000000000016935063a9059cbb92506044019050602060405180830381600087803b1580156123e557600080fd5b505af11580156123f9573d6000803e3d6000fd5b505050506040513d601f19601f8201168201806040525081019061241d9190614992565b61242957612429614f16565b6040517fbebbf4d00000000000000000000000000000000000000000000000000000000081523460048201526001600160a01b03838116602483015284169063bebbf4d090604401602060405180830381600087803b15801561248b57600080fd5b505af115801561249f573d6000803e3d6000fd5b505050506040513d601f19601f820116820180604052508101906124c39190614acb565b50349392505050565b6124d4613255565b6001600160a01b0316336001600160a01b0316146125345760405162461bcd60e51b815260206004820152601a60248201527f416e79737761705633526f757465723a20464f5242494444454e00000000000060448201526064016107a6565b6125418585858585613285565b5050505050565b60007f00000000000000000000000000000000000000000000000000000000000000006001600160a01b0316846001600160a01b0316636f307dc36040518163ffffffff1660e01b815260040160206040518083038186803b1580156125ad57600080fd5b505afa1580156125c1573d6000803e3d6000fd5b505050506040513d601f19601f820116820180604052508101906125e591906145bc565b6001600160a01b0316146126615760405162461bcd60e51b815260206004820152602a60248201527f416e79737761705633526f757465723a20756e6465726c79696e67206973206e60448201527f6f7420774e41544956450000000000000000000000000000000000000000000060648201526084016107a6565b6040517e39d6ec000000000000000000000000000000000000000000000000000000008152336004820152602481018490523060448201526001600160a01b038516906239d6ec90606401602060405180830381600087803b1580156126c657600080fd5b505af11580156126da573d6000803e3d6000fd5b505050506040513d601f19601f820116820180604052508101906126fe9190614acb565b506040517f2e1a7d4d000000000000000000000000000000000000000000000000000000008152600481018490527f00000000000000000000000000000000000000000000000000000000000000006001600160a01b031690632e1a7d4d90602401600060405180830381600087803b15801561277a57600080fd5b505af115801561278e573d6000803e3d6000fd5b5050505061279c8284613386565b509092915050565b6000610bf1848484613d7e565b6127b9613255565b6001600160a01b0316336001600160a01b0316146128195760405162461bcd60e51b815260206004820152601a60248201527f416e79737761705633526f757465723a20464f5242494444454e00000000000060448201526064016107a6565b6040517fcfbd48850000000000000000000000000000000000000000000000000000000081526001600160a01b03828116600483015283169063cfbd4885906024015b600060405180830381600087803b15801561287657600080fd5b505af1158015611448573d6000803e3d6000fd5b612892613255565b6001600160a01b0316336001600160a01b0316146128f25760405162461bcd60e51b815260206004820152601a60248201527f416e79737761705633526f757465723a20464f5242494444454e00000000000060448201526064016107a6565b60006128fc613255565b6040517f40c10f190000000000000000000000000000000000000000000000000000000081526001600160a01b03808316600483015260248201859052919250908416906340c10f1990604401602060405180830381600087803b15801561296357600080fd5b505af1158015612977573d6000803e3d6000fd5b505050506040513d601f19601f8201168201806040525081019061299b9190614992565b506040517e39d6ec0000000000000000000000000000000000000000000000000000000081526001600160a01b03828116600483018190526024830185905260448301528416906239d6ec90606401602060405180830381600087803b158015612a0457600080fd5b505af1158015612a18573d6000803e3d6000fd5b505050506040513d601f19601f82011682018060405250810190610eb99190614acb565b612a44613255565b6001600160a01b0316336001600160a01b031614612aa45760405162461bcd60e51b815260206004820152601a60248201527f416e79737761705633526f757465723a20464f5242494444454e00000000000060448201526064016107a6565b6040517ffca3b5aa0000000000000000000000000000000000000000000000000000000081526001600160a01b03828116600483015283169063fca3b5aa9060240161285c565b7f00000000000000000000000000000000000000000000000000000000000000006001600160a01b0316836001600160a01b0316636f307dc36040518163ffffffff1660e01b815260040160206040518083038186803b158015612b4e57600080fd5b505afa158015612b62573d6000803e3d6000fd5b505050506040513d601f19601f82011682018060405250810190612b8691906145bc565b6001600160a01b031614612c025760405162461bcd60e51b815260206004820152602a60248201527f416e79737761705633526f757465723a20756e6465726c79696e67206973206e60448201527f6f7420774e41544956450000000000000000000000000000000000000000000060648201526084016107a6565b7f00000000000000000000000000000000000000000000000000000000000000006001600160a01b031663d0e30db0346040518263ffffffff1660e01b81526004016000604051808303818588803b158015612c5d57600080fd5b505af1158015612c71573d6000803e3d6000fd5b50506040517fa9059cbb0000000000000000000000000000000000000000000000000000000081526001600160a01b0387811660048301523460248301527f000000000000000000000000000000000000000000000000000000000000000016935063a9059cbb92506044019050602060405180830381600087803b158015612cf957600080fd5b505af1158015612d0d573d6000803e3d6000fd5b505050506040513d601f19601f82011682018060405250810190612d319190614992565b612d3d57612d3d614f16565b6001600160a01b0380831690339085167f97116cf6cd4f6412bb47914d6db18da9e16ab2142f543b86e207c24fbd16b23a3446604080519283526020830191909152810186905260600160405180910390a4505050565b6000610bf1848484613ebe565b6040517f9dc29fac000000000000000000000000000000000000000000000000000000008152336004820152602481018390526001600160a01b03851690639dc29fac90604401602060405180830381600087803b158015612e0257600080fd5b505af1158015612e16573d6000803e3d6000fd5b505050506040513d601f19601f82011682018060405250810190612e3a9190614992565b50336001600160a01b0385167f409e0ad946b19f77602d6cf11d59e1796ddaa4828159a0b4fb7fa2ff6b161b79858546610bc5565b6060610ea37f000000000000000000000000000000000000000000000000000000000000000084846138d1565b60005460ff16612f145760405162461bcd60e51b815260206004820152602360248201527f416e79737761705636526f757465723a2053776170547261646520646973616260448201527f6c6564000000000000000000000000000000000000000000000000000000000060648201526084016107a6565b8142811015612f655760405162461bcd60e51b815260206004820152601860248201527f416e79737761705633526f757465723a2045585049524544000000000000000060448201526064016107a6565b612f7c338787600081811061208857612088614fa3565b85856000818110612f8f57612f8f614fa3565b9050602002016020810190612fa49190614598565b6040517fbebbf4d0000000000000000000000000000000000000000000000000000000008152600481018a90523360248201526001600160a01b03919091169063bebbf4d090604401602060405180830381600087803b15801561300757600080fd5b505af115801561301b573d6000803e3d6000fd5b505050506040513d601f19601f8201168201806040525081019061303f9190614acb565b5085856000818110610d6e57610d6e614fa3565b61305b613255565b6001600160a01b0316336001600160a01b0316146130bb5760405162461bcd60e51b815260206004820152601a60248201527f416e79737761705633526f757465723a20464f5242494444454e00000000000060448201526064016107a6565b806001600160a01b0316630d707df86040518163ffffffff1660e01b8152600401600060405180830381600087803b1580156130f657600080fd5b505af1158015612541573d6000803e3d6000fd5b50565b60005b878110156131b3576131a1338a8a8481811061312e5761312e614fa3565b90506020020160208101906131439190614598565b89898581811061315557613155614fa3565b905060200201602081019061316a9190614598565b88888681811061317c5761317c614fa3565b9050602002013587878781811061319557613195614fa3565b905060200201356137d2565b806131ab81614edd565b915050613110565b505050505050505050565b6131fd338584876001600160a01b0316636f307dc36040518163ffffffff1660e01b815260040160206040518083038186803b158015610b4c57600080fd5b6001600160a01b0380841690339086167f97116cf6cd4f6412bb47914d6db18da9e16ab2142f543b86e207c24fbd16b23a8546604080519283526020830191909152810186905260600160405180910390a450505050565b6000600254421061327057506001546001600160a01b031690565b5060005461010090046001600160a01b031690565b6040517f40c10f190000000000000000000000000000000000000000000000000000000081526001600160a01b038481166004830152602482018490528516906340c10f1990604401602060405180830381600087803b1580156132e857600080fd5b505af11580156132fc573d6000803e3d6000fd5b505050506040513d601f19601f820116820180604052508101906133209190614992565b50826001600160a01b0316846001600160a01b0316867faac9ce45fe3adf5143598c4f18a369591a20a3384aedaf1b525d29127e1fcd5585856133604690565b604080519384526020840192909252908201526060015b60405180910390a45050505050565b604080516000808252602082019092526001600160a01b0384169083906040516133b09190614c9c565b60006040518083038185875af1925050503d80600081146133ed576040519150601f19603f3d011682016040523d82523d6000602084013e6133f2565b606091505b50509050806134695760405162461bcd60e51b815260206004820152602660248201527f5472616e7366657248656c7065723a204e41544956455f5452414e534645525f60448201527f4641494c4544000000000000000000000000000000000000000000000000000060648201526084016107a6565b505050565b604080516001600160a01b0385811660248301528416604482015260648082018490528251808303909101815260849091019091526020810180517bffffffffffffffffffffffffffffffffffffffffffffffffffffffff167f23b872dd00000000000000000000000000000000000000000000000000000000179052610eb9908590613fcc565b600080841161356d5760405162461bcd60e51b815260206004820152602d60248201527f53757368697377617056324c6962726172793a20494e53554646494349454e5460448201527f5f494e5055545f414d4f554e540000000000000000000000000000000000000060648201526084016107a6565b60008311801561357d5750600082115b6135ef5760405162461bcd60e51b815260206004820152602a60248201527f53757368697377617056324c6962726172793a20494e53554646494349454e5460448201527f5f4c49515549444954590000000000000000000000000000000000000000000060648201526084016107a6565b60006135fd856103e5614166565b9050600061360b8285614166565b905060006136258361361f886103e8614166565b906141d3565b90506136318183614e2a565b979650505050505050565b60606002825110156136905760405162461bcd60e51b815260206004820181905260248201527f53757368697377617056324c6962726172793a20494e56414c49445f5041544860448201526064016107a6565b815167ffffffffffffffff8111156136aa576136aa614fd2565b6040519080825280602002602001820160405280156136d3578160200160208202803683370190505b5090508281600183516136e69190614e65565b815181106136f6576136f6614fa3565b6020026020010181815250506000600183516137129190614e65565b90505b80156137ca57600080613765878661372e600187614e65565b8151811061373e5761373e614fa3565b602002602001015187868151811061375857613758614fa3565b6020026020010151614226565b9150915061378d84848151811061377e5761377e614fa3565b60200260200101518383613d7e565b84613799600186614e65565b815181106137a9576137a9614fa3565b602002602001018181525050505080806137c290614ea8565b915050613715565b509392505050565b6040517f9dc29fac0000000000000000000000000000000000000000000000000000000081526001600160a01b03868116600483015260248201849052851690639dc29fac90604401602060405180830381600087803b15801561383557600080fd5b505af1158015613849573d6000803e3d6000fd5b505050506040513d601f19601f8201168201806040525081019061386d9190614992565b50826001600160a01b0316856001600160a01b0316856001600160a01b03167f97116cf6cd4f6412bb47914d6db18da9e16ab2142f543b86e207c24fbd16b23a856138b54690565b6040805192835260208301919091528101869052606001613377565b60606002825110156139255760405162461bcd60e51b815260206004820181905260248201527f53757368697377617056324c6962726172793a20494e56414c49445f5041544860448201526064016107a6565b815167ffffffffffffffff81111561393f5761393f614fd2565b604051908082528060200260200182016040528015613968578160200160208202803683370190505b509050828160008151811061397f5761397f614fa3565b60200260200101818152505060005b6001835161399c9190614e65565b8110156137ca576000806139e2878685815181106139bc576139bc614fa3565b6020026020010151878660016139d29190614e12565b8151811061375857613758614fa3565b91509150613a0a8484815181106139fb576139fb614fa3565b602002602001015183836134f6565b84613a16856001614e12565b81518110613a2657613a26614fa3565b60200260200101818152505050508080613a3f90614edd565b91505061398e565b6000806000613a56858561430d565b6040517fffffffffffffffffffffffffffffffffffffffff000000000000000000000000606084811b8216602084015283901b1660348201529193509150869060480160405160208183030381529060405280519060200120604051602001613b3c9291907fff00000000000000000000000000000000000000000000000000000000000000815260609290921b7fffffffffffffffffffffffffffffffffffffffff00000000000000000000000016600183015260158201527fe18a34eb0e04b04f7a0ac29a6e80748dca96319b42c54d679cb821dca90c6303603582015260550190565b604080517fffffffffffffffffffffffffffffffffffffffffffffffffffffffffffffffe081840301815291905280516020909101209695505050505050565b60005b60018351613b8d9190614e65565b811015610eb957600080848381518110613ba957613ba9614fa3565b602002602001015185846001613bbf9190614e12565b81518110613bcf57613bcf614fa3565b6020026020010151915091506000613be7838361430d565b509050600087613bf8866001614e12565b81518110613c0857613c08614fa3565b60200260200101519050600080836001600160a01b0316866001600160a01b031614613c3657826000613c3a565b6000835b91509150600060028a51613c4e9190614e65565b8810613c5a5788613ca8565b613ca87f0000000000000000000000000000000000000000000000000000000000000000878c613c8b8c6002614e12565b81518110613c9b57613c9b614fa3565b6020026020010151613a47565b9050613cd57f00000000000000000000000000000000000000000000000000000000000000008888613a47565b6001600160a01b031663022c0d9f84848460006040519080825280601f01601f191660200182016040528015613d12576020820181803683370190505b506040518563ffffffff1660e01b8152600401613d329493929190614d95565b600060405180830381600087803b158015613d4c57600080fd5b505af1158015613d60573d6000803e3d6000fd5b50505050505050505050508080613d7690614edd565b915050613b7f565b6000808411613df55760405162461bcd60e51b815260206004820152602e60248201527f53757368697377617056324c6962726172793a20494e53554646494349454e5460448201527f5f4f55545055545f414d4f554e5400000000000000000000000000000000000060648201526084016107a6565b600083118015613e055750600082115b613e775760405162461bcd60e51b815260206004820152602a60248201527f53757368697377617056324c6962726172793a20494e53554646494349454e5460448201527f5f4c49515549444954590000000000000000000000000000000000000000000060648201526084016107a6565b6000613e8f6103e8613e898688614166565b90614166565b90506000613ea36103e5613e89868961441d565b9050613eb4600161361f8385614e2a565b9695505050505050565b6000808411613f355760405162461bcd60e51b815260206004820152602760248201527f53757368697377617056324c6962726172793a20494e53554646494349454e5460448201527f5f414d4f554e540000000000000000000000000000000000000000000000000060648201526084016107a6565b600083118015613f455750600082115b613fb75760405162461bcd60e51b815260206004820152602a60248201527f53757368697377617056324c6962726172793a20494e53554646494349454e5460448201527f5f4c49515549444954590000000000000000000000000000000000000000000060648201526084016107a6565b82613fc28584614166565b610bf19190614e2a565b613fde826001600160a01b0316614470565b61402a5760405162461bcd60e51b815260206004820152601f60248201527f5361666545524332303a2063616c6c20746f206e6f6e2d636f6e74726163740060448201526064016107a6565b600080836001600160a01b0316836040516140459190614c9c565b6000604051808303816000865af19150503d8060008114614082576040519150601f19603f3d011682016040523d82523d6000602084013e614087565b606091505b5091509150816140d95760405162461bcd60e51b815260206004820181905260248201527f5361666545524332303a206c6f772d6c6576656c2063616c6c206661696c656460448201526064016107a6565b805115610eb957808060200190518101906140f49190614992565b610eb95760405162461bcd60e51b815260206004820152602a60248201527f5361666545524332303a204552433230206f7065726174696f6e20646964206e60448201527f6f7420737563636565640000000000000000000000000000000000000000000060648201526084016107a6565b60008115806141875750508082028282828161418457614184614f74565b04145b610ea65760405162461bcd60e51b815260206004820152601460248201527f64732d6d6174682d6d756c2d6f766572666c6f7700000000000000000000000060448201526064016107a6565b80820182811015610ea65760405162461bcd60e51b815260206004820152601460248201527f64732d6d6174682d6164642d6f766572666c6f7700000000000000000000000060448201526064016107a6565b6000806000614235858561430d565b509050600080614246888888613a47565b6001600160a01b0316630902f1ac6040518163ffffffff1660e01b815260040160606040518083038186803b15801561427e57600080fd5b505afa158015614292573d6000803e3d6000fd5b505050506040513d601f19601f820116820180604052508101906142b69190614a86565b506dffffffffffffffffffffffffffff1691506dffffffffffffffffffffffffffff169150826001600160a01b0316876001600160a01b0316146142fb5780826142fe565b81815b90999098509650505050505050565b600080826001600160a01b0316846001600160a01b031614156143985760405162461bcd60e51b815260206004820152602760248201527f53757368697377617056324c6962726172793a204944454e544943414c5f414460448201527f445245535345530000000000000000000000000000000000000000000000000060648201526084016107a6565b826001600160a01b0316846001600160a01b0316106143b85782846143bb565b83835b90925090506001600160a01b0382166144165760405162461bcd60e51b815260206004820181905260248201527f53757368697377617056324c6962726172793a205a45524f5f4144445245535360448201526064016107a6565b9250929050565b80820382811115610ea65760405162461bcd60e51b815260206004820152601560248201527f64732d6d6174682d7375622d756e646572666c6f77000000000000000000000060448201526064016107a6565b6000813f7fc5d2460186f7233c927e7db2dcc703c0e500b653ca82273b7bfad8045d85a4708115801590610bf15750141592915050565b60008083601f8401126144b957600080fd5b50813567ffffffffffffffff8111156144d157600080fd5b6020830191508360208260051b850101111561441657600080fd5b600082601f8301126144fd57600080fd5b813567ffffffffffffffff81111561451757614517614fd2565b61454860207fffffffffffffffffffffffffffffffffffffffffffffffffffffffffffffffe0601f84011601614dc3565b81815284602083860101111561455d57600080fd5b816020850160208301376000918101602001919091529392505050565b80516dffffffffffffffffffffffffffff81168114611de057600080fd5b6000602082840312156145aa57600080fd5b81356145b581615001565b9392505050565b6000602082840312156145ce57600080fd5b81516145b581615001565b600080604083850312156145ec57600080fd5b82356145f781615001565b9150602083013561460781615001565b809150509250929050565b60008060006060848603121561462757600080fd5b833561463281615001565b9250602084013561464281615001565b929592945050506040919091013590565b6000806000806080858703121561466957600080fd5b843561467481615001565b9350602085013561468481615001565b93969395505050506040820135916060013590565b6000806000606084860312156146ae57600080fd5b83356146b981615001565b9250602084013567ffffffffffffffff8111156146d557600080fd5b6146e1868287016144ec565b925050604084013590509250925092565b6000806000806080858703121561470857600080fd5b843561471381615001565b9350602085013567ffffffffffffffff81111561472f57600080fd5b61473b878288016144ec565b949794965050505060408301359260600135919050565b6000806040838503121561476557600080fd5b823561477081615001565b946020939093013593505050565b60008060006060848603121561479357600080fd5b833561479e81615001565b92506020840135915060408401356147b581615001565b809150509250925092565b6000806000806000806000806080898b0312156147dc57600080fd5b883567ffffffffffffffff808211156147f457600080fd5b6148008c838d016144a7565b909a50985060208b013591508082111561481957600080fd5b6148258c838d016144a7565b909850965060408b013591508082111561483e57600080fd5b61484a8c838d016144a7565b909650945060608b013591508082111561486357600080fd5b506148708b828c016144a7565b999c989b5096995094979396929594505050565b60008060008060008060008060008060a08b8d0312156148a357600080fd5b8a3567ffffffffffffffff808211156148bb57600080fd5b6148c78e838f016144a7565b909c509a5060208d01359150808211156148e057600080fd5b6148ec8e838f016144a7565b909a50985060408d013591508082111561490557600080fd5b6149118e838f016144a7565b909850965060608d013591508082111561492a57600080fd5b6149368e838f016144a7565b909650945060808d013591508082111561494f57600080fd5b5061495c8d828e016144a7565b915080935050809150509295989b9194979a5092959850565b60006020828403121561498757600080fd5b81356145b581615016565b6000602082840312156149a457600080fd5b81516145b581615016565b600080600080600060a086880312156149c757600080fd5b8535945060208601356149d981615001565b935060408601356149e981615001565b94979396509394606081013594506080013592915050565b60008060008060008060008060e0898b031215614a1d57600080fd5b883597506020890135965060408901359550606089013567ffffffffffffffff811115614a4957600080fd5b614a558b828c016144a7565b9096509450506080890135614a6981615001565b979a969950949793969295929450505060a08201359160c0013590565b600080600060608486031215614a9b57600080fd5b614aa48461457a565b9250614ab26020850161457a565b9150604084015163ffffffff811681146147b557600080fd5b600060208284031215614add57600080fd5b5051919050565b60008060408385031215614af757600080fd5b8235915060208084013567ffffffffffffffff80821115614b1757600080fd5b818601915086601f830112614b2b57600080fd5b813581811115614b3d57614b3d614fd2565b8060051b9150614b4e848301614dc3565b8181528481019084860184860187018b1015614b6957600080fd5b600095505b83861015614b985780359450614b8385615001565b84835260019590950194918601918601614b6e565b508096505050505050509250929050565b600080600080600080600060c0888a031215614bc457600080fd5b8735965060208801359550604088013567ffffffffffffffff811115614be957600080fd5b614bf58a828b016144a7565b9096509450506060880135614c0981615001565b969995985093969295946080840135945060a09093013592915050565b600080600060608486031215614c3b57600080fd5b505081359360208301359350604090920135919050565b60008151808452614c6a816020860160208601614e7c565b601f017fffffffffffffffffffffffffffffffffffffffffffffffffffffffffffffffe0169290920160200192915050565b60008251614cae818460208701614e7c565b9190910192915050565b60a0808252810186905260008760c08301825b89811015614cfb578235614cde81615001565b6001600160a01b0316825260209283019290910190600101614ccb565b50602084019790975250506040810193909352606083019190915260809091015292915050565b6020808252825182820181905260009190848201906040850190845b81811015614d5a57835183529284019291840191600101614d3e565b50909695505050505050565b608081526000614d796080830187614c52565b6020830195909552506040810192909252606090910152919050565b8481528360208201526001600160a01b0383166040820152608060608201526000613eb46080830184614c52565b604051601f82017fffffffffffffffffffffffffffffffffffffffffffffffffffffffffffffffe016810167ffffffffffffffff81118282101715614e0a57614e0a614fd2565b604052919050565b60008219821115614e2557614e25614f45565b500190565b600082614e60577f4e487b7100000000000000000000000000000000000000000000000000000000600052601260045260246000fd5b500490565b600082821015614e7757614e77614f45565b500390565b60005b83811015614e97578181015183820152602001614e7f565b83811115610eb95750506000910152565b600081614eb757614eb7614f45565b507fffffffffffffffffffffffffffffffffffffffffffffffffffffffffffffffff0190565b60007fffffffffffffffffffffffffffffffffffffffffffffffffffffffffffffffff821415614f0f57614f0f614f45565b5060010190565b7f4e487b7100000000000000000000000000000000000000000000000000000000600052600160045260246000fd5b7f4e487b7100000000000000000000000000000000000000000000000000000000600052601160045260246000fd5b7f4e487b7100000000000000000000000000000000000000000000000000000000600052601260045260246000fd5b7f4e487b7100000000000000000000000000000000000000000000000000000000600052603260045260246000fd5b7f4e487b7100000000000000000000000000000000000000000000000000000000600052604160045260246000fd5b6001600160a01b038116811461310a57600080fd5b801515811461310a57600080fdfea2646970667358221220b85e9013e285462ad52e74880073d9ce0bc178743eac7e19e269cfb06f83798964736f6c63430008060033","linkReferences":{},"deployedLinkReferences":{}}