{"_format":"hh-sol-artifact-1","contractName":"AnyswapV6ERC20","sourceName":"contracts/AnyswapV6ERC20.sol","abi":[{"inputs":[{"internalType":"string","name":"_name","type":"string"},{"internalType":"string","name":"_symbol","type":"string"},{"internalType":"uint8","name":"_decimals","type":"uint8"},{"internalType":"address","name":"_underlying","type":"address"},{"internalType":"address","name":"_vault","type":"address"},{"internalType":"address","name":"_minter","type":"address"}],"stateMutability":"nonpayable","type":"constructor"},{"anonymous":false,"inputs":[{"indexed":true,"internalType":"address","name":"owner","type":"address"},{"indexed":true,"internalType":"address","name":"spender","type":"address"},{"indexed":false,"internalType":"uint256","name":"value","type":"uint256"}],"name":"Approval","type":"event"},{"anonymous":false,"inputs":[{"indexed":true,"internalType":"address","name":"oldVault","type":"address"},{"indexed":true,"internalType":"address","name":"newVault","type":"address"},{"indexed":true,"internalType":"uint256","name":"effectiveTime","type":"uint256"}],"name":"LogChangeVault","type":"event"},{"anonymous":false,"inputs":[{"indexed":true,"internalType":"bytes32","name":"txhash","type":"bytes32"},{"indexed":true,"internalType":"address","name":"account","type":"address"},{"indexed":false,"internalType":"uint256","name":"amount","type":"uint256"}],"name":"LogSwapin","type":"event"},{"anonymous":false,"inputs":[{"indexed":true,"internalType":"address","name":"account","type":"address"},{"indexed":true,"internalType":"address","name":"bindaddr","type":"address"},{"indexed":false,"internalType":"uint256","name":"amount","type":"uint256"}],"name":"LogSwapout","type":"event"},{"anonymous":false,"inputs":[{"indexed":true,"internalType":"address","name":"from","type":"address"},{"indexed":true,"internalType":"address","name":"to","type":"address"},{"indexed":false,"internalType":"uint256","name":"value","type":"uint256"}],"name":"Transfer","type":"event"},{"inputs":[],"name":"DOMAIN_SEPARATOR","outputs":[{"internalType":"bytes32","name":"","type":"bytes32"}],"stateMutability":"view","type":"function"},{"inputs":[],"name":"PERMIT_TYPEHASH","outputs":[{"internalType":"bytes32","name":"","type":"bytes32"}],"stateMutability":"view","type":"function"},{"inputs":[{"internalType":"bytes32","name":"txhash","type":"bytes32"},{"internalType":"address","name":"account","type":"address"},{"internalType":"uint256","name":"amount","type":"uint256"}],"name":"Swapin","outputs":[{"internalType":"bool","name":"","type":"bool"}],"stateMutability":"nonpayable","type":"function"},{"inputs":[{"internalType":"uint256","name":"amount","type":"uint256"},{"internalType":"address","name":"bindaddr","type":"address"}],"name":"Swapout","outputs":[{"internalType":"bool","name":"","type":"bool"}],"stateMutability":"nonpayable","type":"function"},{"inputs":[],"name":"TRANSFER_TYPEHASH","outputs":[{"internalType":"bytes32","name":"","type":"bytes32"}],"stateMutability":"view","type":"function"},{"inputs":[{"internalType":"address","name":"","type":"address"},{"internalType":"address","name":"","type":"address"}],"name":"allowance","outputs":[{"internalType":"uint256","name":"","type":"uint256"}],"stateMutability":"view","type":"function"},{"inputs":[],"name":"applyMinter","outputs":[],"stateMutability":"nonpayable","type":"function"},{"inputs":[],"name":"applyVault","outputs":[],"stateMutability":"nonpayable","type":"function"},{"inputs":[{"internalType":"address","name":"spender","type":"address"},{"internalType":"uint256","name":"value","type":"uint256"}],"name":"approve","outputs":[{"internalType":"bool","name":"","type":"bool"}],"stateMutability":"nonpayable","type":"function"},{"inputs":[{"internalType":"address","name":"spender","type":"address"},{"internalType":"uint256","name":"value","type":"uint256"},{"internalType":"bytes","name":"data","type":"bytes"}],"name":"approveAndCall","outputs":[{"internalType":"bool","name":"","type":"bool"}],"stateMutability":"nonpayable","type":"function"},{"inputs":[{"internalType":"address","name":"","type":"address"}],"name":"balanceOf","outputs":[{"internalType":"uint256","name":"","type":"uint256"}],"stateMutability":"view","type":"function"},{"inputs":[{"internalType":"address","name":"from","type":"address"},{"internalType":"uint256","name":"amount","type":"uint256"}],"name":"burn","outputs":[{"internalType":"bool","name":"","type":"bool"}],"stateMutability":"nonpayable","type":"function"},{"inputs":[{"internalType":"address","name":"newVault","type":"address"}],"name":"changeVault","outputs":[{"internalType":"bool","name":"","type":"bool"}],"stateMutability":"nonpayable","type":"function"},{"inputs":[],"name":"decimals","outputs":[{"internalType":"uint8","name":"","type":"uint8"}],"stateMutability":"view","type":"function"},{"inputs":[],"name":"delay","outputs":[{"internalType":"uint256","name":"","type":"uint256"}],"stateMutability":"view","type":"function"},{"inputs":[],"name":"delayMinter","outputs":[{"internalType":"uint256","name":"","type":"uint256"}],"stateMutability":"view","type":"function"},{"inputs":[],"name":"delayVault","outputs":[{"internalType":"uint256","name":"","type":"uint256"}],"stateMutability":"view","type":"function"},{"inputs":[{"internalType":"uint256","name":"amount","type":"uint256"},{"internalType":"address","name":"to","type":"address"}],"name":"deposit","outputs":[{"internalType":"uint256","name":"","type":"uint256"}],"stateMutability":"nonpayable","type":"function"},{"inputs":[{"internalType":"uint256","name":"amount","type":"uint256"}],"name":"deposit","outputs":[{"internalType":"uint256","name":"","type":"uint256"}],"stateMutability":"nonpayable","type":"function"},{"inputs":[],"name":"deposit","outputs":[{"internalType":"uint256","name":"","type":"uint256"}],"stateMutability":"nonpayable","type":"function"},{"inputs":[{"internalType":"uint256","name":"amount","type":"uint256"},{"internalType":"address","name":"to","type":"address"}],"name":"depositVault","outputs":[{"internalType":"uint256","name":"","type":"uint256"}],"stateMutability":"nonpayable","type":"function"},{"inputs":[],"name":"getAllMinters","outputs":[{"internalType":"address[]","name":"","type":"address[]"}],"stateMutability":"view","type":"function"},{"inputs":[{"internalType":"address","name":"_vault","type":"address"}],"name":"initVault","outputs":[],"stateMutability":"nonpayable","type":"function"},{"inputs":[{"internalType":"address","name":"","type":"address"}],"name":"isMinter","outputs":[{"internalType":"bool","name":"","type":"bool"}],"stateMutability":"view","type":"function"},{"inputs":[{"internalType":"address","name":"to","type":"address"},{"internalType":"uint256","name":"amount","type":"uint256"}],"name":"mint","outputs":[{"internalType":"bool","name":"","type":"bool"}],"stateMutability":"nonpayable","type":"function"},{"inputs":[{"internalType":"uint256","name":"","type":"uint256"}],"name":"minters","outputs":[{"internalType":"address","name":"","type":"address"}],"stateMutability":"view","type":"function"},{"inputs":[],"name":"mpc","outputs":[{"internalType":"address","name":"","type":"address"}],"stateMutability":"view","type":"function"},{"inputs":[],"name":"name","outputs":[{"internalType":"string","name":"","type":"string"}],"stateMutability":"view","type":"function"},{"inputs":[{"internalType":"address","name":"","type":"address"}],"name":"nonces","outputs":[{"internalType":"uint256","name":"","type":"uint256"}],"stateMutability":"view","type":"function"},{"inputs":[],"name":"owner","outputs":[{"internalType":"address","name":"","type":"address"}],"stateMutability":"view","type":"function"},{"inputs":[],"name":"pendingMinter","outputs":[{"internalType":"address","name":"","type":"address"}],"stateMutability":"view","type":"function"},{"inputs":[],"name":"pendingVault","outputs":[{"internalType":"address","name":"","type":"address"}],"stateMutability":"view","type":"function"},{"inputs":[{"internalType":"address","name":"target","type":"address"},{"internalType":"address","name":"spender","type":"address"},{"internalType":"uint256","name":"value","type":"uint256"},{"internalType":"uint256","name":"deadline","type":"uint256"},{"internalType":"uint8","name":"v","type":"uint8"},{"internalType":"bytes32","name":"r","type":"bytes32"},{"internalType":"bytes32","name":"s","type":"bytes32"}],"name":"permit","outputs":[],"stateMutability":"nonpayable","type":"function"},{"inputs":[{"internalType":"address","name":"_auth","type":"address"}],"name":"revokeMinter","outputs":[],"stateMutability":"nonpayable","type":"function"},{"inputs":[{"internalType":"address","name":"_auth","type":"address"}],"name":"setMinter","outputs":[],"stateMutability":"nonpayable","type":"function"},{"inputs":[{"internalType":"address","name":"_vault","type":"address"}],"name":"setVault","outputs":[],"stateMutability":"nonpayable","type":"function"},{"inputs":[{"internalType":"bool","name":"enabled","type":"bool"}],"name":"setVaultOnly","outputs":[],"stateMutability":"nonpayable","type":"function"},{"inputs":[],"name":"symbol","outputs":[{"internalType":"string","name":"","type":"string"}],"stateMutability":"view","type":"function"},{"inputs":[],"name":"totalSupply","outputs":[{"internalType":"uint256","name":"","type":"uint256"}],"stateMutability":"view","type":"function"},{"inputs":[{"internalType":"address","name":"to","type":"address"},{"internalType":"uint256","name":"value","type":"uint256"}],"name":"transfer","outputs":[{"internalType":"bool","name":"","type":"bool"}],"stateMutability":"nonpayable","type":"function"},{"inputs":[{"internalType":"address","name":"to","type":"address"},{"internalType":"uint256","name":"value","type":"uint256"},{"internalType":"bytes","name":"data","type":"bytes"}],"name":"transferAndCall","outputs":[{"internalType":"bool","name":"","type":"bool"}],"stateMutability":"nonpayable","type":"function"},{"inputs":[{"internalType":"address","name":"from","type":"address"},{"internalType":"address","name":"to","type":"address"},{"internalType":"uint256","name":"value","type":"uint256"}],"name":"transferFrom","outputs":[{"internalType":"bool","name":"","type":"bool"}],"stateMutability":"nonpayable","type":"function"},{"inputs":[{"internalType":"address","name":"target","type":"address"},{"internalType":"address","name":"to","type":"address"},{"internalType":"uint256","name":"value","type":"uint256"},{"internalType":"uint256","name":"deadline","type":"uint256"},{"internalType":"uint8","name":"v","type":"uint8"},{"internalType":"bytes32","name":"r","type":"bytes32"},{"internalType":"bytes32","name":"s","type":"bytes32"}],"name":"transferWithPermit","outputs":[{"internalType":"bool","name":"","type":"bool"}],"stateMutability":"nonpayable","type":"function"},{"inputs":[],"name":"underlying","outputs":[{"internalType":"address","name":"","type":"address"}],"stateMutability":"view","type":"function"},{"inputs":[],"name":"vault","outputs":[{"internalType":"address","name":"","type":"address"}],"stateMutability":"view","type":"function"},{"inputs":[{"internalType":"uint256","name":"amount","type":"uint256"},{"internalType":"address","name":"to","type":"address"}],"name":"withdraw","outputs":[{"internalType":"uint256","name":"","type":"uint256"}],"stateMutability":"nonpayable","type":"function"},{"inputs":[{"internalType":"uint256","name":"amount","type":"uint256"}],"name":"withdraw","outputs":[{"internalType":"uint256","name":"","type":"uint256"}],"stateMutability":"nonpayable","type":"function"},{"inputs":[],"name":"withdraw","outputs":[{"internalType":"uint256","name":"","type":"uint256"}],"stateMutability":"nonpayable","type":"function"},{"inputs":[{"internalType":"address","name":"from","type":"address"},{"internalType":"uint256","name":"amount","type":"uint256"},{"internalType":"address","name":"to","type":"address"}],"name":"withdrawVault","outputs":[{"internalType":"uint256","name":"","type":"uint256"}],"stateMutability":"nonpayable","type":"function"}],"bytecode":"0x60e06040526202a3006005553480156200001857600080fd5b506040516200331f3803806200331f8339810160408190526200003b916200041a565b8551620000509060009060208901906200028e565b508451620000669060019060208801906200028e565b507fff0000000000000000000000000000000000000000000000000000000000000060f885901b166080526001600160601b0319606084901b1660a0526001600160a01b038316156200013a57826001600160a01b031663313ce5676040518163ffffffff1660e01b815260040160206040518083038186803b158015620000ed57600080fd5b505afa15801562000102573d6000803e3d6000fd5b505050506040513d601f19601f82011682018060405250810190620001289190620004cd565b60ff168460ff16146200013a57600080fd5b6001600160a01b03808216600081815260066020526040808220805460ff191660019081179091556007805480830182559084527fa66cc928b5edb82af9bd49922954155ab7b0942694bea4ce44661d9a8736c6880180546001600160a01b031990811690951790556004805461ffff191690911790556008805494871694841685179055600b805490931690931790915542600c55905146917f8b73c3c69bb8fe3d512ecc4cf759cc79239f7b179b0ffacaa9a75d522b39400f91620002029190620004f2565b60408051918290038220828201825260018352603160f81b6020938401528151928301939093528101919091527fc89efdaa54c0f20c7adf612882df0950f5a951637e0307cdcb4c672f298b8bc66060820152608081018290523060a082015260c00160408051601f19818403018152919052805160209091012060c05250620005e995505050505050565b8280546200029c9062000596565b90600052602060002090601f016020900481019282620002c057600085556200030b565b82601f10620002db57805160ff19168380011785556200030b565b828001600101855582156200030b579182015b828111156200030b578251825591602001919060010190620002ee565b50620003199291506200031d565b5090565b5b808211156200031957600081556001016200031e565b80516001600160a01b03811681146200034c57600080fd5b919050565b600082601f8301126200036357600080fd5b81516001600160401b0380821115620003805762000380620005d3565b604051601f8301601f19908116603f01168101908282118183101715620003ab57620003ab620005d3565b81604052838152602092508683858801011115620003c857600080fd5b600091505b83821015620003ec5785820183015181830184015290820190620003cd565b83821115620003fe5760008385830101525b9695505050505050565b805160ff811681146200034c57600080fd5b60008060008060008060c087890312156200043457600080fd5b86516001600160401b03808211156200044c57600080fd5b6200045a8a838b0162000351565b975060208901519150808211156200047157600080fd5b506200048089828a0162000351565b955050620004916040880162000408565b9350620004a16060880162000334565b9250620004b16080880162000334565b9150620004c160a0880162000334565b90509295509295509295565b600060208284031215620004e057600080fd5b620004eb8262000408565b9392505050565b600080835481600182811c9150808316806200050f57607f831692505b60208084108214156200053057634e487b7160e01b86526022600452602486fd5b818015620005475760018114620005595762000588565b60ff1986168952848901965062000588565b60008a81526020902060005b86811015620005805781548b82015290850190830162000565565b505084890196505b509498975050505050505050565b600181811c90821680620005ab57607f821691505b60208210811415620005cd57634e487b7160e01b600052602260045260246000fd5b50919050565b634e487b7160e01b600052604160045260246000fd5b60805160f81c60a05160601c60c051612cc16200065e6000396000818161047501528181612235015261234101526000818161055d01528181611615015281816118f601528181611c1a01528181611ca3015281816120fb0152818161253401526125670152600061043c0152612cc16000f3fe608060405234801561001057600080fd5b50600436106103285760003560e01c806370a08231116101b2578063bebbf4d0116100f9578063d505accf116100a2578063ec126c771161007c578063ec126c7714610712578063f75c266414610725578063fbfa77cf1461072d578063fca3b5aa1461074057600080fd5b8063d505accf146106cc578063d93f2445146106df578063dd62ed3e146106e757600080fd5b8063cae9ca51116100d3578063cae9ca511461069e578063cfbd4885146106b1578063d0e30db0146106c457600080fd5b8063bebbf4d01461066f578063c308124014610682578063c4b740f51461068b57600080fd5b806395d89b411161015b578063a9059cbb11610135578063a9059cbb14610626578063aa271e1a14610639578063b6b55f251461065c57600080fd5b806395d89b41146105f65780639dc29fac146105fe578063a045442c1461061157600080fd5b806387689e281161018c57806387689e28146105d25780638da5cb5b146105db57806391c5df49146105e357600080fd5b806370a082311461057f5780637ecebe001461059f5780638623ec7b146105bf57600080fd5b80633644e5151161027657806360e232a91161021f5780636a42b8f8116101f95780636a42b8f81461053c5780636e553f65146105455780636f307dc31461055857600080fd5b806360e232a914610503578063628d6cba146105165780636817031b1461052957600080fd5b806340c10f191161025057806340c10f19146104b257806352113ba7146104c5578063605629d6146104f057600080fd5b80633644e515146104705780633ccfd60b146104975780634000aea01461049f57600080fd5b806318160ddd116102d85780632ebe3fbb116102b25780632ebe3fbb146103fd57806330adf81f14610410578063313ce5671461043757600080fd5b806318160ddd146103cf57806323b872dd146103d75780632e1a7d4d146103ea57600080fd5b806306fdde031161030957806306fdde031461038d578063095ea7b3146103a25780630d707df8146103c557600080fd5b806239d6ec1461032d578062bf26f414610353578062f714ce1461037a575b600080fd5b61034061033b36600461290a565b610753565b6040519081526020015b60405180910390f35b6103407f42ce63790c28229c123925d83266e77c04d28784552ab68b350a9003226cbd5981565b610340610388366004612a5e565b6107d5565b6103956107e9565b60405161034a9190612b30565b6103b56103b03660046128e0565b610877565b604051901515815260200161034a565b6103cd6108e3565b005b600354610340565b6103b56103e5366004612831565b610a05565b6103406103f8366004612a2c565b610c9c565b6103cd61040b3660046127e3565b610caf565b6103407f6e71edae12b1b97f4d1f60370fef10105fa2faae0126114a169c64845d6126c981565b61045e7f000000000000000000000000000000000000000000000000000000000000000081565b60405160ff909116815260200161034a565b6103407f000000000000000000000000000000000000000000000000000000000000000081565b610340610dec565b6103b56104ad366004612946565b610e0d565b6103b56104c03660046128e0565b610fe7565b600b546104d8906001600160a01b031681565b6040516001600160a01b03909116815260200161034a565b6103b56104fe36600461286d565b611059565b6103b56105113660046127e3565b6112d1565b6103b5610524366004612a5e565b61140a565b6103cd6105373660046127e3565b611502565b61034060055481565b610340610553366004612a5e565b611606565b6104d87f000000000000000000000000000000000000000000000000000000000000000081565b61034061058d3660046127e3565b60026020526000908152604090205481565b6103406105ad3660046127e3565b600d6020526000908152604090205481565b6104d86105cd366004612a2c565b611647565b610340600c5481565b6104d8611671565b6009546104d8906001600160a01b031681565b61039561167b565b6103b561060c3660046128e0565b611688565b610619611747565b60405161034a9190612ae3565b6103b56106343660046128e0565b6117a9565b6103b56106473660046127e3565b60066020526000908152604090205460ff1681565b61034061066a366004612a2c565b6118e7565b61034061067d366004612a5e565b611928565b610340600a5481565b6103cd6106993660046129cd565b611992565b6103b56106ac366004612946565b611a31565b6103cd6106bf3660046127e3565b611b38565b610340611bdf565b6103cd6106da36600461286d565b611cdb565b6103cd611e5b565b6103406106f53660046127fe565b600e60209081526000928352604080842090915290825290205481565b6103b5610720366004612a07565b611f0e565b6104d8611fb3565b6008546104d8906001600160a01b031681565b6103cd61074e3660046127e3565b611fde565b600061075d611fb3565b6001600160a01b0316336001600160a01b0316146107c25760405162461bcd60e51b815260206004820152601960248201527f416e7973776170563345524332303a20464f5242494444454e0000000000000060448201526064015b60405180910390fd5b6107cd8484846120e2565b949350505050565b60006107e23384846120e2565b9392505050565b600080546107f690612bbe565b80601f016020809104026020016040519081016040528092919081815260200182805461082290612bbe565b801561086f5780601f106108445761010080835404028352916020019161086f565b820191906000526020600020905b81548152906001019060200180831161085257829003601f168201915b505050505081565b336000818152600e602090815260408083206001600160a01b038716808552925280832085905551919290917f8c5be1e5ebec7d5bd14f71427d1e84f3dd0314c0f7b2291e5b200ac8c7c3b925906108d29086815260200190565b60405180910390a350600192915050565b6108eb611fb3565b6001600160a01b0316336001600160a01b03161461094b5760405162461bcd60e51b815260206004820152601960248201527f416e7973776170563345524332303a20464f5242494444454e0000000000000060448201526064016107b9565b600a5442101561095a57600080fd5b600980546001600160a01b03908116600090815260066020526040812080547fffffffffffffffffffffffffffffffffffffffffffffffffffffffffffffff0016600190811790915592546007805494850181559091527fa66cc928b5edb82af9bd49922954155ab7b0942694bea4ce44661d9a8736c68890920180547fffffffffffffffffffffffff00000000000000000000000000000000000000001692909116919091179055565b60006001600160a01b038316151580610a2757506001600160a01b0383163014155b610a3057600080fd5b6001600160a01b0384163314610b6e576001600160a01b0384166000908152600e602090815260408083203384529091529020547fffffffffffffffffffffffffffffffffffffffffffffffffffffffffffffffff8114610b6c5782811015610b015760405162461bcd60e51b815260206004820152602960248201527f416e7973776170563345524332303a207265717565737420657863656564732060448201527f616c6c6f77616e6365000000000000000000000000000000000000000000000060648201526084016107b9565b6000610b0d8483612b7b565b6001600160a01b0387166000818152600e6020908152604080832033808552908352928190208590555184815293945090927f8c5be1e5ebec7d5bd14f71427d1e84f3dd0314c0f7b2291e5b200ac8c7c3b925910160405180910390a3505b505b6001600160a01b03841660009081526002602052604090205482811015610bfd5760405162461bcd60e51b815260206004820152602f60248201527f416e7973776170563345524332303a207472616e7366657220616d6f756e742060448201527f657863656564732062616c616e6365000000000000000000000000000000000060648201526084016107b9565b610c078382612b7b565b6001600160a01b038087166000908152600260205260408082209390935590861681529081208054859290610c3d908490612b63565b92505081905550836001600160a01b0316856001600160a01b03167fddf252ad1be2c89b69c2b068fc378daa952ba7f163c4a11628f55a4df523b3ef85604051610c8991815260200190565b60405180910390a3506001949350505050565b6000610ca93383336120e2565b92915050565b610cb7611fb3565b6001600160a01b0316336001600160a01b031614610d175760405162461bcd60e51b815260206004820152601960248201527f416e7973776170563345524332303a20464f5242494444454e0000000000000060448201526064016107b9565b60045460ff16610d2657600080fd5b600880546001600160a01b039092167fffffffffffffffffffffffff00000000000000000000000000000000000000009283168117909155600b8054831682179055600081815260066020526040812080547fffffffffffffffffffffffffffffffffffffffffffffffffffffffffffffff0090811660019081179092556007805492830181559092527fa66cc928b5edb82af9bd49922954155ab7b0942694bea4ce44661d9a8736c68801805490931690911790915542600c55600480549091169055565b336000818152600260205260408120549091610e0891816120e2565b905090565b60006001600160a01b038516151580610e2f57506001600160a01b0385163014155b610e3857600080fd5b3360009081526002602052604090205484811015610ebe5760405162461bcd60e51b815260206004820152602f60248201527f416e7973776170563345524332303a207472616e7366657220616d6f756e742060448201527f657863656564732062616c616e6365000000000000000000000000000000000060648201526084016107b9565b610ec88582612b7b565b33600090815260026020526040808220929092556001600160a01b03881681529081208054879290610efb908490612b63565b90915550506040518581526001600160a01b0387169033907fddf252ad1be2c89b69c2b068fc378daa952ba7f163c4a11628f55a4df523b3ef9060200160405180910390a36040517fa4c0ed360000000000000000000000000000000000000000000000000000000081526001600160a01b0387169063a4c0ed3690610f8b903390899089908990600401612a9d565b602060405180830381600087803b158015610fa557600080fd5b505af1158015610fb9573d6000803e3d6000fd5b505050506040513d601f19601f82011682018060405250810190610fdd91906129ea565b9695505050505050565b3360009081526006602052604081205460ff166110465760405162461bcd60e51b815260206004820152601960248201527f416e7973776170563445524332303a20464f5242494444454e0000000000000060448201526064016107b9565b611050838361212a565b50600192915050565b6000844211156110ab5760405162461bcd60e51b815260206004820152601e60248201527f416e7973776170563345524332303a2045787069726564207065726d6974000060448201526064016107b9565b6001600160a01b0388166000908152600d6020526040812080547f42ce63790c28229c123925d83266e77c04d28784552ab68b350a9003226cbd59918b918b918b9190866110f883612c12565b909155506040805160208101969096526001600160a01b0394851690860152929091166060840152608083015260a082015260c0810187905260e001604051602081830303815290604052805190602001209050611159898287878761220a565b8061116c575061116c8982878787612316565b61117557600080fd5b6001600160a01b03881615158061119557506001600160a01b0388163014155b61119e57600080fd5b6001600160a01b0389166000908152600260205260409020548781101561122d5760405162461bcd60e51b815260206004820152602f60248201527f416e7973776170563345524332303a207472616e7366657220616d6f756e742060448201527f657863656564732062616c616e6365000000000000000000000000000000000060648201526084016107b9565b6112378882612b7b565b6001600160a01b03808c1660009081526002602052604080822093909355908b16815290812080548a929061126d908490612b63565b92505081905550886001600160a01b03168a6001600160a01b03167fddf252ad1be2c89b69c2b068fc378daa952ba7f163c4a11628f55a4df523b3ef8a6040516112b991815260200190565b60405180910390a35060019998505050505050505050565b60006112db611fb3565b6001600160a01b0316336001600160a01b03161461133b5760405162461bcd60e51b815260206004820152601960248201527f416e7973776170563345524332303a20464f5242494444454e0000000000000060448201526064016107b9565b6001600160a01b0382166113915760405162461bcd60e51b815260206004820152601c60248201527f416e7973776170563345524332303a206164647265737328307830290000000060448201526064016107b9565b600880546001600160a01b0384167fffffffffffffffffffffffff00000000000000000000000000000000000000009182168117909255600b80549091168217905560405142919081907f5c364079e7102c27c608f9b237c735a1b7bfa0b67f27c2ad26bad447bf965cac90600090a45060015b919050565b600454600090610100900460ff16156114655760405162461bcd60e51b815260206004820152601860248201527f416e7973776170563445524332303a206f6e6c7941757468000000000000000060448201526064016107b9565b6001600160a01b0382166114bb5760405162461bcd60e51b815260206004820152601c60248201527f416e7973776170563345524332303a206164647265737328307830290000000060448201526064016107b9565b6114c53384612379565b6040518381526001600160a01b0383169033907f6b616089d04950dc06c45c6dd787d657980543f89651aec47924752c7d16c888906020016108d2565b61150a611fb3565b6001600160a01b0316336001600160a01b03161461156a5760405162461bcd60e51b815260206004820152601960248201527f416e7973776170563345524332303a20464f5242494444454e0000000000000060448201526064016107b9565b6001600160a01b0381166115c05760405162461bcd60e51b815260206004820152601c60248201527f416e7973776170563345524332303a206164647265737328307830290000000060448201526064016107b9565b600b80547fffffffffffffffffffffffff0000000000000000000000000000000000000000166001600160a01b0383161790556005546116009042612b63565b600c5550565b600061163d6001600160a01b037f000000000000000000000000000000000000000000000000000000000000000016333086612479565b6107e28383612530565b6007818154811061165757600080fd5b6000918252602090912001546001600160a01b0316905081565b6000610e08611fb3565b600180546107f690612bbe565b3360009081526006602052604081205460ff166116e75760405162461bcd60e51b815260206004820152601960248201527f416e7973776170563445524332303a20464f5242494444454e0000000000000060448201526064016107b9565b6001600160a01b03831661173d5760405162461bcd60e51b815260206004820152601c60248201527f416e7973776170563345524332303a206164647265737328307830290000000060448201526064016107b9565b6110508383612379565b6060600780548060200260200160405190810160405280929190818152602001828054801561179f57602002820191906000526020600020905b81546001600160a01b03168152600190910190602001808311611781575b5050505050905090565b60006001600160a01b0383161515806117cb57506001600160a01b0383163014155b6117d457600080fd5b336000908152600260205260409020548281101561185a5760405162461bcd60e51b815260206004820152602f60248201527f416e7973776170563345524332303a207472616e7366657220616d6f756e742060448201527f657863656564732062616c616e6365000000000000000000000000000000000060648201526084016107b9565b6118648382612b7b565b33600090815260026020526040808220929092556001600160a01b03861681529081208054859290611897908490612b63565b90915550506040518381526001600160a01b0385169033907fddf252ad1be2c89b69c2b068fc378daa952ba7f163c4a11628f55a4df523b3ef906020015b60405180910390a35060019392505050565b600061191e6001600160a01b037f000000000000000000000000000000000000000000000000000000000000000016333085612479565b610ca98233612530565b6000611932611fb3565b6001600160a01b0316336001600160a01b03161461163d5760405162461bcd60e51b815260206004820152601960248201527f416e7973776170563345524332303a20464f5242494444454e0000000000000060448201526064016107b9565b61199a611fb3565b6001600160a01b0316336001600160a01b0316146119fa5760405162461bcd60e51b815260206004820152601960248201527f416e7973776170563345524332303a20464f5242494444454e0000000000000060448201526064016107b9565b60048054911515610100027fffffffffffffffffffffffffffffffffffffffffffffffffffffffffffff00ff909216919091179055565b336000818152600e602090815260408083206001600160a01b038916808552925280832087905551919290917f8c5be1e5ebec7d5bd14f71427d1e84f3dd0314c0f7b2291e5b200ac8c7c3b92590611a8c9088815260200190565b60405180910390a36040517eba451f0000000000000000000000000000000000000000000000000000000081526001600160a01b0386169062ba451f90611add903390889088908890600401612a9d565b602060405180830381600087803b158015611af757600080fd5b505af1158015611b0b573d6000803e3d6000fd5b505050506040513d601f19601f82011682018060405250810190611b2f91906129ea565b95945050505050565b611b40611fb3565b6001600160a01b0316336001600160a01b031614611ba05760405162461bcd60e51b815260206004820152601960248201527f416e7973776170563345524332303a20464f5242494444454e0000000000000060448201526064016107b9565b6001600160a01b0316600090815260066020526040902080547fffffffffffffffffffffffffffffffffffffffffffffffffffffffffffffff00169055565b6040517f70a0823100000000000000000000000000000000000000000000000000000000815233600482015260009081906001600160a01b037f000000000000000000000000000000000000000000000000000000000000000016906370a082319060240160206040518083038186803b158015611c5c57600080fd5b505afa158015611c70573d6000803e3d6000fd5b505050506040513d601f19601f82011682018060405250810190611c949190612a45565b9050611ccb6001600160a01b037f000000000000000000000000000000000000000000000000000000000000000016333084612479565b611cd58133612530565b91505090565b83421115611d2b5760405162461bcd60e51b815260206004820152601e60248201527f416e7973776170563345524332303a2045787069726564207065726d6974000060448201526064016107b9565b6001600160a01b0387166000908152600d6020526040812080547f6e71edae12b1b97f4d1f60370fef10105fa2faae0126114a169c64845d6126c9918a918a918a919086611d7883612c12565b909155506040805160208101969096526001600160a01b0394851690860152929091166060840152608083015260a082015260c0810186905260e001604051602081830303815290604052805190602001209050611dd9888286868661220a565b80611dec5750611dec8882868686612316565b611df557600080fd5b6001600160a01b038881166000818152600e60209081526040808320948c16808452948252918290208a905590518981527f8c5be1e5ebec7d5bd14f71427d1e84f3dd0314c0f7b2291e5b200ac8c7c3b925910160405180910390a35050505050505050565b611e63611fb3565b6001600160a01b0316336001600160a01b031614611ec35760405162461bcd60e51b815260206004820152601960248201527f416e7973776170563345524332303a20464f5242494444454e0000000000000060448201526064016107b9565b600c54421015611ed257600080fd5b600b54600880547fffffffffffffffffffffffff0000000000000000000000000000000000000000166001600160a01b03909216919091179055565b3360009081526006602052604081205460ff16611f6d5760405162461bcd60e51b815260206004820152601960248201527f416e7973776170563445524332303a20464f5242494444454e0000000000000060448201526064016107b9565b611f77838361212a565b826001600160a01b0316847f05d0634fe981be85c22e2942a880821b70095d84e152c3ea3c17a4e4250d9d61846040516118d591815260200190565b6000600c544210611fce5750600b546001600160a01b031690565b506008546001600160a01b031690565b611fe6611fb3565b6001600160a01b0316336001600160a01b0316146120465760405162461bcd60e51b815260206004820152601960248201527f416e7973776170563345524332303a20464f5242494444454e0000000000000060448201526064016107b9565b6001600160a01b03811661209c5760405162461bcd60e51b815260206004820152601c60248201527f416e7973776170563345524332303a206164647265737328307830290000000060448201526064016107b9565b600980547fffffffffffffffffffffffff0000000000000000000000000000000000000000166001600160a01b0383161790556005546120dc9042612b63565b600a5550565b60006120ee8484612379565b6121226001600160a01b037f00000000000000000000000000000000000000000000000000000000000000001683856125ad565b509092915050565b6001600160a01b0382166121805760405162461bcd60e51b815260206004820152601f60248201527f45524332303a206d696e7420746f20746865207a65726f20616464726573730060448201526064016107b9565b80600360008282546121929190612b63565b90915550506001600160a01b038216600090815260026020526040812080548392906121bf908490612b63565b90915550506040518181526001600160a01b038316906000907fddf252ad1be2c89b69c2b068fc378daa952ba7f163c4a11628f55a4df523b3ef906020015b60405180910390a35050565b6040517f190100000000000000000000000000000000000000000000000000000000000060208201527f000000000000000000000000000000000000000000000000000000000000000060228201526042810185905260009081906062015b60408051601f198184030181528282528051602091820120600080855291840180845281905260ff89169284019290925260608301879052608083018690529092509060019060a0016020604051602081039080840390855afa1580156122d4573d6000803e3d6000fd5b5050604051601f1901519150506001600160a01b0381161580159061230a5750876001600160a01b0316816001600160a01b0316145b98975050505050505050565b6040517f19457468657265756d205369676e6564204d6573736167653a0a33320000000060208201527f0000000000000000000000000000000000000000000000000000000000000000603c820152605c81018590526000908190607c01612269565b6001600160a01b0382166123f55760405162461bcd60e51b815260206004820152602160248201527f45524332303a206275726e2066726f6d20746865207a65726f2061646472657360448201527f730000000000000000000000000000000000000000000000000000000000000060648201526084016107b9565b6001600160a01b0382166000908152600260205260408120805483929061241d908490612b7b565b9250508190555080600360008282546124369190612b7b565b90915550506040518181526000906001600160a01b038416907fddf252ad1be2c89b69c2b068fc378daa952ba7f163c4a11628f55a4df523b3ef906020016121fe565b6040516001600160a01b038085166024830152831660448201526064810182905261252a9085907f23b872dd00000000000000000000000000000000000000000000000000000000906084015b60408051601f198184030181529190526020810180517bffffffffffffffffffffffffffffffffffffffffffffffffffffffff167fffffffff00000000000000000000000000000000000000000000000000000000909316929092179091526125fb565b50505050565b60007f00000000000000000000000000000000000000000000000000000000000000006001600160a01b03161580159061259357507f00000000000000000000000000000000000000000000000000000000000000006001600160a01b03163014155b61259c57600080fd5b6125a6828461212a565b5090919050565b6040516001600160a01b0383166024820152604481018290526125f69084907fa9059cbb00000000000000000000000000000000000000000000000000000000906064016124c6565b505050565b61260d826001600160a01b0316612795565b6126595760405162461bcd60e51b815260206004820152601f60248201527f5361666545524332303a2063616c6c20746f206e6f6e2d636f6e74726163740060448201526064016107b9565b600080836001600160a01b0316836040516126749190612a81565b6000604051808303816000865af19150503d80600081146126b1576040519150601f19603f3d011682016040523d82523d6000602084013e6126b6565b606091505b5091509150816127085760405162461bcd60e51b815260206004820181905260248201527f5361666545524332303a206c6f772d6c6576656c2063616c6c206661696c656460448201526064016107b9565b80511561252a578080602001905181019061272391906129ea565b61252a5760405162461bcd60e51b815260206004820152602a60248201527f5361666545524332303a204552433230206f7065726174696f6e20646964206e60448201527f6f7420737563636565640000000000000000000000000000000000000000000060648201526084016107b9565b6000813f7fc5d2460186f7233c927e7db2dcc703c0e500b653ca82273b7bfad8045d85a47081158015906107cd5750141592915050565b80356001600160a01b038116811461140557600080fd5b6000602082840312156127f557600080fd5b6107e2826127cc565b6000806040838503121561281157600080fd5b61281a836127cc565b9150612828602084016127cc565b90509250929050565b60008060006060848603121561284657600080fd5b61284f846127cc565b925061285d602085016127cc565b9150604084013590509250925092565b600080600080600080600060e0888a03121561288857600080fd5b612891886127cc565b965061289f602089016127cc565b95506040880135945060608801359350608088013560ff811681146128c357600080fd5b9699959850939692959460a0840135945060c09093013592915050565b600080604083850312156128f357600080fd5b6128fc836127cc565b946020939093013593505050565b60008060006060848603121561291f57600080fd5b612928846127cc565b92506020840135915061293d604085016127cc565b90509250925092565b6000806000806060858703121561295c57600080fd5b612965856127cc565b935060208501359250604085013567ffffffffffffffff8082111561298957600080fd5b818701915087601f83011261299d57600080fd5b8135818111156129ac57600080fd5b8860208285010111156129be57600080fd5b95989497505060200194505050565b6000602082840312156129df57600080fd5b81356107e281612c7a565b6000602082840312156129fc57600080fd5b81516107e281612c7a565b600080600060608486031215612a1c57600080fd5b8335925061285d602085016127cc565b600060208284031215612a3e57600080fd5b5035919050565b600060208284031215612a5757600080fd5b5051919050565b60008060408385031215612a7157600080fd5b82359150612828602084016127cc565b60008251612a93818460208701612b92565b9190910192915050565b6001600160a01b038516815283602082015260606040820152816060820152818360808301376000818301608090810191909152601f909201601f191601019392505050565b6020808252825182820181905260009190848201906040850190845b81811015612b245783516001600160a01b031683529284019291840191600101612aff565b50909695505050505050565b6020815260008251806020840152612b4f816040850160208701612b92565b601f01601f19169190910160400192915050565b60008219821115612b7657612b76612c4b565b500190565b600082821015612b8d57612b8d612c4b565b500390565b60005b83811015612bad578181015183820152602001612b95565b8381111561252a5750506000910152565b600181811c90821680612bd257607f821691505b60208210811415612c0c577f4e487b7100000000000000000000000000000000000000000000000000000000600052602260045260246000fd5b50919050565b60007fffffffffffffffffffffffffffffffffffffffffffffffffffffffffffffffff821415612c4457612c44612c4b565b5060010190565b7f4e487b7100000000000000000000000000000000000000000000000000000000600052601160045260246000fd5b8015158114612c8857600080fd5b5056fea2646970667358221220e597728cd46e3dd44663a48085b65cc7fa096b0e652a66f584f51e0a3120817a64736f6c63430008060033","linkReferences":{},"deployedLinkReferences":{}}