{"_format":"hh-sol-artifact-1","contractName":"InfinityERC20","sourceName":"contracts/InfinityERC20.sol","abi":[{"constant":true,"inputs":[],"name":"name","outputs":[{"name":"","type":"string"}],"payable":false,"stateMutability":"view","type":"function"},{"constant":false,"inputs":[{"name":"spender","type":"address"},{"name":"tokens","type":"uint256"}],"name":"approve","outputs":[{"name":"success","type":"bool"}],"payable":false,"stateMutability":"nonpayable","type":"function"},{"constant":true,"inputs":[],"name":"totalSupply","outputs":[{"name":"","type":"uint256"}],"payable":false,"stateMutability":"view","type":"function"},{"constant":false,"inputs":[{"name":"from","type":"address"},{"name":"to","type":"address"},{"name":"tokens","type":"uint256"}],"name":"transferFrom","outputs":[{"name":"success","type":"bool"}],"payable":false,"stateMutability":"nonpayable","type":"function"},{"constant":true,"inputs":[],"name":"decimals","outputs":[{"name":"","type":"uint8"}],"payable":false,"stateMutability":"view","type":"function"},{"constant":true,"inputs":[{"name":"tokenOwner","type":"address"}],"name":"balanceOf","outputs":[{"name":"balance","type":"uint256"}],"payable":false,"stateMutability":"view","type":"function"},{"constant":false,"inputs":[],"name":"acceptOwnership","outputs":[],"payable":false,"stateMutability":"nonpayable","type":"function"},{"constant":true,"inputs":[],"name":"owner","outputs":[{"name":"","type":"address"}],"payable":false,"stateMutability":"view","type":"function"},{"constant":true,"inputs":[],"name":"symbol","outputs":[{"name":"","type":"string"}],"payable":false,"stateMutability":"view","type":"function"},{"constant":false,"inputs":[],"name":"drip","outputs":[],"payable":false,"stateMutability":"nonpayable","type":"function"},{"constant":false,"inputs":[{"name":"to","type":"address"},{"name":"tokens","type":"uint256"}],"name":"transfer","outputs":[{"name":"success","type":"bool"}],"payable":false,"stateMutability":"nonpayable","type":"function"},{"constant":false,"inputs":[{"name":"spender","type":"address"},{"name":"tokens","type":"uint256"},{"name":"data","type":"bytes"}],"name":"approveAndCall","outputs":[{"name":"success","type":"bool"}],"payable":false,"stateMutability":"nonpayable","type":"function"},{"constant":true,"inputs":[],"name":"newOwner","outputs":[{"name":"","type":"address"}],"payable":false,"stateMutability":"view","type":"function"},{"constant":false,"inputs":[{"name":"tokenAddress","type":"address"},{"name":"tokens","type":"uint256"}],"name":"transferAnyERC20Token","outputs":[{"name":"success","type":"bool"}],"payable":false,"stateMutability":"nonpayable","type":"function"},{"constant":true,"inputs":[{"name":"tokenOwner","type":"address"},{"name":"spender","type":"address"}],"name":"allowance","outputs":[{"name":"remaining","type":"uint256"}],"payable":false,"stateMutability":"view","type":"function"},{"constant":false,"inputs":[{"name":"_newOwner","type":"address"}],"name":"transferOwnership","outputs":[],"payable":false,"stateMutability":"nonpayable","type":"function"},{"inputs":[{"name":"_name","type":"string"},{"name":"_symbol","type":"string"},{"name":"_decimals","type":"uint8"}],"payable":false,"stateMutability":"nonpayable","type":"constructor"},{"payable":true,"stateMutability":"payable","type":"fallback"},{"anonymous":false,"inputs":[{"indexed":true,"name":"_from","type":"address"},{"indexed":true,"name":"_to","type":"address"}],"name":"OwnershipTransferred","type":"event"},{"anonymous":false,"inputs":[{"indexed":true,"name":"from","type":"address"},{"indexed":true,"name":"to","type":"address"},{"indexed":false,"name":"tokens","type":"uint256"}],"name":"Transfer","type":"event"},{"anonymous":false,"inputs":[{"indexed":true,"name":"tokenOwner","type":"address"},{"indexed":true,"name":"spender","type":"address"},{"indexed":false,"name":"tokens","type":"uint256"}],"name":"Approval","type":"event"}],"bytecode":"0x60806040523480156200001157600080fd5b506040516200111038038062001110833981018060405260608110156200003757600080fd5b8101908080516401000000008111156200005057600080fd5b820160208101848111156200006457600080fd5b81516401000000008111828201871017156200007f57600080fd5b505092919060200180516401000000008111156200009c57600080fd5b82016020810184811115620000b057600080fd5b8151640100000000811182820187101715620000cb57600080fd5b505060209182015160008054600160a060020a0319163317905585519194509250620000fe9160039190860190620001a3565b50815162000114906002906020850190620001a3565b506004805460ff191660ff838116919091179182905516600a0a633b9aca00810260058190556103e890910260065560008054600160a060020a0390811682526007602090815260408084208590558354815195865290519216937fddf252ad1be2c89b69c2b068fc378daa952ba7f163c4a11628f55a4df523b3ef929081900390910190a350505062000248565b828054600181600116156101000203166002900490600052602060002090601f016020900481019282601f10620001e657805160ff191683800117855562000216565b8280016001018555821562000216579182015b8281111562000216578251825591602001919060010190620001f9565b506200022492915062000228565b5090565b6200024591905b808211156200022457600081556001016200022f565b90565b610eb880620002586000396000f3fe608060405260043610610110576000357c01000000000000000000000000000000000000000000000000000000009004806395d89b41116100a7578063d4ee1d9011610076578063d4ee1d90146104b4578063dc39d06d146104c9578063dd62ed3e1461050f578063f2fde38b1461055757610110565b806395d89b411461036f5780639f678cca14610384578063a9059cbb14610399578063cae9ca51146103df57610110565b8063313ce567116100e3578063313ce567146102b157806370a08231146102dc57806379ba50971461031c5780638da5cb5b1461033157610110565b806306fdde0314610156578063095ea7b3146101e057806318160ddd1461023a57806323b872dd14610261575b61011c33600654610597565b5060003411156101545760405133903480156108fc02916000818181858888f19350505050158015610152573d6000803e3d6000fd5b505b005b34801561016257600080fd5b5061016b610661565b6040805160208082528351818301528351919283929083019185019080838360005b838110156101a557818101518382015260200161018d565b50505050905090810190601f1680156101d25780820380516001836020036101000a031916815260200191505b509250505060405180910390f35b3480156101ec57600080fd5b506102266004803603604081101561020357600080fd5b5073ffffffffffffffffffffffffffffffffffffffff813516906020013561070d565b604080519115158252519081900360200190f35b34801561024657600080fd5b5061024f610780565b60408051918252519081900360200190f35b34801561026d57600080fd5b506102266004803603606081101561028457600080fd5b5073ffffffffffffffffffffffffffffffffffffffff8135811691602081013590911690604001356107c3565b3480156102bd57600080fd5b506102c6610902565b6040805160ff9092168252519081900360200190f35b3480156102e857600080fd5b5061024f600480360360208110156102ff57600080fd5b503573ffffffffffffffffffffffffffffffffffffffff1661090b565b34801561032857600080fd5b50610154610933565b34801561033d57600080fd5b506103466109ed565b6040805173ffffffffffffffffffffffffffffffffffffffff9092168252519081900360200190f35b34801561037b57600080fd5b5061016b610a09565b34801561039057600080fd5b50610154610a7f565b3480156103a557600080fd5b50610226600480360360408110156103bc57600080fd5b5073ffffffffffffffffffffffffffffffffffffffff8135169060200135610a8e565b3480156103eb57600080fd5b506102266004803603606081101561040257600080fd5b73ffffffffffffffffffffffffffffffffffffffff8235169160208101359181019060608101604082013564010000000081111561043f57600080fd5b82018360208201111561045157600080fd5b8035906020019184600183028401116401000000008311171561047357600080fd5b91908080601f016020809104026020016040519081016040528093929190818152602001838380828437600092019190915250929550610b58945050505050565b3480156104c057600080fd5b50610346610cd3565b3480156104d557600080fd5b50610226600480360360408110156104ec57600080fd5b5073ffffffffffffffffffffffffffffffffffffffff8135169060200135610cef565b34801561051b57600080fd5b5061024f6004803603604081101561053257600080fd5b5073ffffffffffffffffffffffffffffffffffffffff81358116916020013516610dc4565b34801561056357600080fd5b506101546004803603602081101561057a57600080fd5b503573ffffffffffffffffffffffffffffffffffffffff16610dfc565b73ffffffffffffffffffffffffffffffffffffffff82166000908152600760205260408120546105cd908363ffffffff610e6716565b73ffffffffffffffffffffffffffffffffffffffff8416600090815260076020526040902055600554610606908363ffffffff610e6716565b60055560408051838152905173ffffffffffffffffffffffffffffffffffffffff8516916000917fddf252ad1be2c89b69c2b068fc378daa952ba7f163c4a11628f55a4df523b3ef9181900360200190a35060015b92915050565b6003805460408051602060026001851615610100027fffffffffffffffffffffffffffffffffffffffffffffffffffffffffffffffff0190941693909304601f810184900484028201840190925281815292918301828280156107055780601f106106da57610100808354040283529160200191610705565b820191906000526020600020905b8154815290600101906020018083116106e857829003601f168201915b505050505081565b33600081815260086020908152604080832073ffffffffffffffffffffffffffffffffffffffff8716808552908352818420869055815186815291519394909390927f8c5be1e5ebec7d5bd14f71427d1e84f3dd0314c0f7b2291e5b200ac8c7c3b925928290030190a350600192915050565b600080805260076020527f6d5257204ebe7d88fd91ae87941cb2dd9d8062b64ae5a2bd2d28ec40b9fbf6df546005546107be9163ffffffff610e7716565b905090565b73ffffffffffffffffffffffffffffffffffffffff83166000908152600760205260408120546107f9908363ffffffff610e7716565b73ffffffffffffffffffffffffffffffffffffffff85166000908152600760209081526040808320939093556008815282822033835290522054610843908363ffffffff610e7716565b73ffffffffffffffffffffffffffffffffffffffff8086166000908152600860209081526040808320338452825280832094909455918616815260079091522054610894908363ffffffff610e6716565b73ffffffffffffffffffffffffffffffffffffffff80851660008181526007602090815260409182902094909455805186815290519193928816927fddf252ad1be2c89b69c2b068fc378daa952ba7f163c4a11628f55a4df523b3ef92918290030190a35060019392505050565b60045460ff1681565b73ffffffffffffffffffffffffffffffffffffffff1660009081526007602052604090205490565b60015473ffffffffffffffffffffffffffffffffffffffff16331461095757600080fd5b6001546000805460405173ffffffffffffffffffffffffffffffffffffffff93841693909116917f8be0079c531659141344cd1fd0a4f28419497f9722a3daafe3b4186f6b6457e091a360018054600080547fffffffffffffffffffffffff000000000000000000000000000000000000000090811673ffffffffffffffffffffffffffffffffffffffff841617909155169055565b60005473ffffffffffffffffffffffffffffffffffffffff1681565b600280546040805160206001841615610100027fffffffffffffffffffffffffffffffffffffffffffffffffffffffffffffffff01909316849004601f810184900484028201840190925281815292918301828280156107055780601f106106da57610100808354040283529160200191610705565b610a8b33600654610597565b50565b33600090815260076020526040812054610aae908363ffffffff610e7716565b336000908152600760205260408082209290925573ffffffffffffffffffffffffffffffffffffffff851681522054610aed908363ffffffff610e6716565b73ffffffffffffffffffffffffffffffffffffffff84166000818152600760209081526040918290209390935580518581529051919233927fddf252ad1be2c89b69c2b068fc378daa952ba7f163c4a11628f55a4df523b3ef9281900390910190a350600192915050565b33600081815260086020908152604080832073ffffffffffffffffffffffffffffffffffffffff8816808552908352818420879055815187815291519394909390927f8c5be1e5ebec7d5bd14f71427d1e84f3dd0314c0f7b2291e5b200ac8c7c3b925928290030190a36040517f8f4ffcb1000000000000000000000000000000000000000000000000000000008152336004820181815260248301869052306044840181905260806064850190815286516084860152865173ffffffffffffffffffffffffffffffffffffffff8a1695638f4ffcb195948a94938a939192909160a490910190602085019080838360005b83811015610c62578181015183820152602001610c4a565b50505050905090810190601f168015610c8f5780820380516001836020036101000a031916815260200191505b5095505050505050600060405180830381600087803b158015610cb157600080fd5b505af1158015610cc5573d6000803e3d6000fd5b506001979650505050505050565b60015473ffffffffffffffffffffffffffffffffffffffff1681565b6000805473ffffffffffffffffffffffffffffffffffffffff163314610d1457600080fd5b60008054604080517fa9059cbb00000000000000000000000000000000000000000000000000000000815273ffffffffffffffffffffffffffffffffffffffff92831660048201526024810186905290519186169263a9059cbb926044808401936020939083900390910190829087803b158015610d9157600080fd5b505af1158015610da5573d6000803e3d6000fd5b505050506040513d6020811015610dbb57600080fd5b50519392505050565b73ffffffffffffffffffffffffffffffffffffffff918216600090815260086020908152604080832093909416825291909152205490565b60005473ffffffffffffffffffffffffffffffffffffffff163314610e2057600080fd5b600180547fffffffffffffffffffffffff00000000000000000000000000000000000000001673ffffffffffffffffffffffffffffffffffffffff92909216919091179055565b8181018281101561065b57600080fd5b600082821115610e8657600080fd5b5090039056fea165627a7a7230582046b710f51a91f832855c9d4c2444149001206a1a08f27c46261a96e9fc18dd200029","linkReferences":{},"deployedLinkReferences":{}}