{"_format":"hh-sol-artifact-1","contractName":"RouterConfig","sourceName":"contracts/RouterConfig.sol","abi":[{"inputs":[],"stateMutability":"nonpayable","type":"constructor"},{"anonymous":false,"inputs":[{"indexed":true,"internalType":"address","name":"previousOwner","type":"address"},{"indexed":true,"internalType":"address","name":"newOwner","type":"address"}],"name":"OwnershipTransferred","type":"event"},{"anonymous":false,"inputs":[],"name":"UpdateConfig","type":"event"},{"inputs":[{"internalType":"uint256","name":"chainID","type":"uint256"}],"name":"addChainID","outputs":[{"internalType":"bool","name":"","type":"bool"}],"stateMutability":"nonpayable","type":"function"},{"inputs":[{"internalType":"string","name":"tokenID","type":"string"}],"name":"addTokenID","outputs":[{"internalType":"bool","name":"","type":"bool"}],"stateMutability":"nonpayable","type":"function"},{"inputs":[],"name":"getAllChainIDs","outputs":[{"internalType":"uint256[]","name":"","type":"uint256[]"}],"stateMutability":"view","type":"function"},{"inputs":[{"internalType":"string","name":"tokenID","type":"string"}],"name":"getAllMultichainTokens","outputs":[{"components":[{"internalType":"uint256","name":"ChainID","type":"uint256"},{"internalType":"address","name":"TokenAddress","type":"address"}],"internalType":"struct IConfigQuery.MultichainToken[]","name":"","type":"tuple[]"}],"stateMutability":"view","type":"function"},{"inputs":[],"name":"getAllTokenIDs","outputs":[{"internalType":"string[]","name":"result","type":"string[]"}],"stateMutability":"view","type":"function"},{"inputs":[{"internalType":"uint256","name":"chainID","type":"uint256"}],"name":"getChainConfig","outputs":[{"components":[{"internalType":"string","name":"BlockChain","type":"string"},{"internalType":"address","name":"RouterContract","type":"address"},{"internalType":"uint64","name":"Confirmations","type":"uint64"},{"internalType":"uint64","name":"InitialHeight","type":"uint64"}],"internalType":"struct IConfigQuery.ChainConfig","name":"","type":"tuple"}],"stateMutability":"view","type":"function"},{"inputs":[{"internalType":"uint256","name":"chainID","type":"uint256"},{"internalType":"string","name":"key","type":"string"}],"name":"getCustomConfig","outputs":[{"internalType":"string","name":"","type":"string"}],"stateMutability":"view","type":"function"},{"inputs":[{"internalType":"address","name":"mpcAddress","type":"address"}],"name":"getMPCPubkey","outputs":[{"internalType":"string","name":"","type":"string"}],"stateMutability":"view","type":"function"},{"inputs":[{"internalType":"string","name":"tokenID","type":"string"},{"internalType":"uint256","name":"chainID","type":"uint256"}],"name":"getMultichainToken","outputs":[{"internalType":"address","name":"","type":"address"}],"stateMutability":"view","type":"function"},{"inputs":[{"internalType":"string","name":"tokenID","type":"string"},{"internalType":"uint256","name":"toChainID","type":"uint256"}],"name":"getSwapConfig","outputs":[{"components":[{"internalType":"uint256","name":"MaximumSwap","type":"uint256"},{"internalType":"uint256","name":"MinimumSwap","type":"uint256"},{"internalType":"uint256","name":"BigValueThreshold","type":"uint256"},{"internalType":"uint256","name":"SwapFeeRatePerMillion","type":"uint256"},{"internalType":"uint256","name":"MaximumSwapFee","type":"uint256"},{"internalType":"uint256","name":"MinimumSwapFee","type":"uint256"}],"internalType":"struct IConfigQuery.SwapConfig","name":"","type":"tuple"}],"stateMutability":"view","type":"function"},{"inputs":[{"internalType":"string","name":"tokenID","type":"string"},{"internalType":"uint256","name":"chainID","type":"uint256"}],"name":"getTokenConfig","outputs":[{"components":[{"internalType":"uint8","name":"Decimals","type":"uint8"},{"internalType":"address","name":"ContractAddress","type":"address"},{"internalType":"uint256","name":"ContractVersion","type":"uint256"}],"internalType":"struct IConfigQuery.TokenConfig","name":"","type":"tuple"}],"stateMutability":"view","type":"function"},{"inputs":[{"internalType":"uint256","name":"chainID","type":"uint256"},{"internalType":"address","name":"tokenAddress","type":"address"}],"name":"getTokenID","outputs":[{"internalType":"string","name":"","type":"string"}],"stateMutability":"view","type":"function"},{"inputs":[{"internalType":"string","name":"tokenID","type":"string"},{"internalType":"uint256","name":"chainID","type":"uint256"}],"name":"getUserTokenConfig","outputs":[{"components":[{"internalType":"uint8","name":"Decimals","type":"uint8"},{"internalType":"address","name":"ContractAddress","type":"address"},{"internalType":"uint256","name":"ContractVersion","type":"uint256"}],"internalType":"struct IConfigQuery.TokenConfig","name":"","type":"tuple"}],"stateMutability":"view","type":"function"},{"inputs":[{"internalType":"uint256","name":"chainID","type":"uint256"}],"name":"isChainIDExist","outputs":[{"internalType":"bool","name":"","type":"bool"}],"stateMutability":"view","type":"function"},{"inputs":[{"internalType":"string","name":"tokenID","type":"string"}],"name":"isTokenIDExist","outputs":[{"internalType":"bool","name":"","type":"bool"}],"stateMutability":"view","type":"function"},{"inputs":[],"name":"owner","outputs":[{"internalType":"address","name":"","type":"address"}],"stateMutability":"view","type":"function"},{"inputs":[{"internalType":"string","name":"tokenID","type":"string"},{"internalType":"uint256","name":"chainID","type":"uint256"}],"name":"pickUserTokenConfig","outputs":[{"internalType":"bool","name":"","type":"bool"}],"stateMutability":"nonpayable","type":"function"},{"inputs":[{"internalType":"string","name":"tokenID","type":"string"}],"name":"removeAllMultichainTokens","outputs":[],"stateMutability":"nonpayable","type":"function"},{"inputs":[{"internalType":"uint256","name":"chainID","type":"uint256"}],"name":"removeChainID","outputs":[{"internalType":"bool","name":"","type":"bool"}],"stateMutability":"nonpayable","type":"function"},{"inputs":[{"internalType":"string","name":"tokenID","type":"string"},{"internalType":"uint256","name":"chainID","type":"uint256"}],"name":"removeMultichainToken","outputs":[{"internalType":"bool","name":"","type":"bool"}],"stateMutability":"nonpayable","type":"function"},{"inputs":[{"internalType":"string","name":"tokenID","type":"string"}],"name":"removeTokenID","outputs":[{"internalType":"bool","name":"","type":"bool"}],"stateMutability":"nonpayable","type":"function"},{"inputs":[{"internalType":"uint256","name":"chainID","type":"uint256"},{"components":[{"internalType":"string","name":"BlockChain","type":"string"},{"internalType":"address","name":"RouterContract","type":"address"},{"internalType":"uint64","name":"Confirmations","type":"uint64"},{"internalType":"uint64","name":"InitialHeight","type":"uint64"}],"internalType":"struct IConfigQuery.ChainConfig","name":"config","type":"tuple"}],"name":"setChainConfig","outputs":[{"internalType":"bool","name":"","type":"bool"}],"stateMutability":"nonpayable","type":"function"},{"inputs":[{"internalType":"uint256","name":"chainID","type":"uint256"},{"internalType":"string","name":"key","type":"string"},{"internalType":"string","name":"data","type":"string"}],"name":"setCustomConfig","outputs":[{"internalType":"bool","name":"","type":"bool"}],"stateMutability":"nonpayable","type":"function"},{"inputs":[{"internalType":"address","name":"addr","type":"address"},{"internalType":"string","name":"pubkey","type":"string"}],"name":"setMPCPubkey","outputs":[{"internalType":"bool","name":"","type":"bool"}],"stateMutability":"nonpayable","type":"function"},{"inputs":[{"internalType":"string","name":"tokenID","type":"string"},{"internalType":"uint256","name":"chainID","type":"uint256"},{"internalType":"address","name":"token","type":"address"}],"name":"setMultichainToken","outputs":[],"stateMutability":"nonpayable","type":"function"},{"inputs":[{"internalType":"string","name":"tokenID","type":"string"},{"internalType":"uint256","name":"toChainID","type":"uint256"},{"components":[{"internalType":"uint256","name":"MaximumSwap","type":"uint256"},{"internalType":"uint256","name":"MinimumSwap","type":"uint256"},{"internalType":"uint256","name":"BigValueThreshold","type":"uint256"},{"internalType":"uint256","name":"SwapFeeRatePerMillion","type":"uint256"},{"internalType":"uint256","name":"MaximumSwapFee","type":"uint256"},{"internalType":"uint256","name":"MinimumSwapFee","type":"uint256"}],"internalType":"struct IConfigQuery.SwapConfig","name":"config","type":"tuple"}],"name":"setSwapConfig","outputs":[{"internalType":"bool","name":"","type":"bool"}],"stateMutability":"nonpayable","type":"function"},{"inputs":[{"internalType":"string","name":"tokenID","type":"string"},{"internalType":"uint256","name":"chainID","type":"uint256"},{"components":[{"internalType":"uint8","name":"Decimals","type":"uint8"},{"internalType":"address","name":"ContractAddress","type":"address"},{"internalType":"uint256","name":"ContractVersion","type":"uint256"}],"internalType":"struct IConfigQuery.TokenConfig","name":"config","type":"tuple"}],"name":"setTokenConfig","outputs":[{"internalType":"bool","name":"","type":"bool"}],"stateMutability":"nonpayable","type":"function"},{"inputs":[{"internalType":"string","name":"tokenID","type":"string"},{"internalType":"uint256","name":"chainID","type":"uint256"},{"components":[{"internalType":"uint8","name":"Decimals","type":"uint8"},{"internalType":"address","name":"ContractAddress","type":"address"},{"internalType":"uint256","name":"ContractVersion","type":"uint256"}],"internalType":"struct IConfigQuery.TokenConfig","name":"config","type":"tuple"}],"name":"setUserTokenConfig","outputs":[{"internalType":"bool","name":"","type":"bool"}],"stateMutability":"nonpayable","type":"function"},{"inputs":[{"internalType":"address","name":"newOwner","type":"address"}],"name":"transferOwnership","outputs":[],"stateMutability":"nonpayable","type":"function"},{"inputs":[],"name":"updateConfig","outputs":[],"stateMutability":"nonpayable","type":"function"}],"bytecode":"0x608060405234801561001057600080fd5b50600a80546001600160a01b03191633179055613848806100326000396000f3fe608060405234801561001057600080fd5b50600436106101da5760003560e01c80639026b20511610104578063c5e7601a116100a2578063e671242a11610071578063e671242a146104c1578063e90768c6146104d4578063f2fde38b146104e7578063fd15ea70146104fa57600080fd5b8063c5e7601a14610473578063ca29ee9614610486578063e27112d514610499578063e3e01664146104ae57600080fd5b8063b735ab5a116100de578063b735ab5a14610427578063ba6e0d0f1461043a578063bc772a281461044d578063c4fb2e4b1461046057600080fd5b80639026b205146103a25780639af93e7a146103b5578063af611ca01461041457600080fd5b80635b7518581161017c578063747fd44c1161014b578063747fd44c1461032057806383f5d5d41461032a5780638da5cb5b1461033d5780638fcb62a31461038257600080fd5b80635b751858146102d25780635d58d0a1146102e557806361387d61146102f8578063684a10b31461030b57600080fd5b80633252c1d0116101b85780633252c1d014610279578063459511d11461028c57806346bd32f51461029f57806358bb97fb146102b257600080fd5b806319ed16dc146101df57806320c29bca146102085780632879196f1461022b575b600080fd5b6101f26101ed366004612ed0565b61050d565b6040516101ff91906131c0565b60405180910390f35b61021b610216366004612ed0565b610639565b60405190151581526020016101ff565b61023e610239366004612c3d565b610738565b60408051825160ff16815260208084015173ffffffffffffffffffffffffffffffffffffffff169082015291810151908201526060016101ff565b61021b610287366004612d6e565b6107f9565b61023e61029a366004612c3d565b610891565b61021b6102ad366004612fc6565b6108f1565b6102c56102c0366004612b89565b610b40565b6040516101ff91906131ad565b61021b6102e0366004612ba6565b610bf9565b61021b6102f3366004612bfb565b610d01565b6102c5610306366004612f19565b610e9c565b610313610f61565b6040516101ff9190613084565b61032861101a565b005b610328610338366004612bfb565b6110ac565b600a5461035d9073ffffffffffffffffffffffffffffffffffffffff1681565b60405173ffffffffffffffffffffffffffffffffffffffff90911681526020016101ff565b610395610390366004612bfb565b61120b565b6040516101ff9190613104565b61021b6103b0366004612c3d565b6112df565b6103c86103c3366004612c3d565b61158c565b6040516101ff9190600060c082019050825182526020830151602083015260408301516040830152606083015160608301526080830151608083015260a083015160a083015292915050565b61021b610422366004612bfb565b611677565b61035d610435366004612c3d565b6116c0565b61021b610448366004612d6e565b6117a3565b61021b61045b366004612c3d565b61186f565b6102c561046e366004612ee9565b61197e565b610328610481366004612c89565b6119ba565b61021b610494366004612ce8565b611a6a565b6104a1611b2b565b6040516101ff9190613169565b61021b6104bc366004612bfb565b611b83565b61021b6104cf366004612f4c565b611cc1565b61021b6104e2366004612ed0565b611dc7565b6103286104f5366004612b89565b611f19565b61021b610508366004612ed0565b61200a565b60408051608081018252606080825260006020830181905292820183905281019190915260008281526003602052604090819020815160808101909252805482908290610559906133f4565b80601f0160208091040260200160405190810160405280929190818152602001828054610585906133f4565b80156105d25780601f106105a7576101008083540402835291602001916105d2565b820191906000526020600020905b8154815290600101906020018083116105b557829003601f168201915b5050509183525050600182015473ffffffffffffffffffffffffffffffffffffffff8116602083015267ffffffffffffffff740100000000000000000000000000000000000000009091048116604083015260029092015490911660609091015292915050565b600a5460009073ffffffffffffffffffffffffffffffffffffffff1633146106a85760405162461bcd60e51b815260206004820152600a60248201527f6f6e6c79206f776e65720000000000000000000000000000000000000000000060448201526064015b60405180910390fd5b6106b18261200a565b156106fe5760405162461bcd60e51b815260206004820152600e60248201527f636861696e204944206578697374000000000000000000000000000000000000604482015260640161069f565b5060008054600181810183559180527f290decd9548b62a8d60345a988386fc84ba6bc95484008f6362f93160ef3e563018290555b919050565b60408051606081018252600080825260208201819052918101919091526005600061079886868080601f01602080910402602001604051908101604052809392919081815260200183838082843760009201919091525061205692505050565b81526020808201929092526040908101600090812085825283528190208151606081018352815460ff81168252610100900473ffffffffffffffffffffffffffffffffffffffff1693810193909352600101549082015290505b9392505050565b600061080a36839003830183612e5f565b602081015173ffffffffffffffffffffffffffffffffffffffff1661082e57600080fd5b61088761087087878080601f01602080910402602001604051908101604052809392919081815260200183838082843760009201919091525061205692505050565b8561088036879003870187612e5f565b600161205d565b9695505050505050565b60408051606081018252600080825260208201819052918101919091526004600061079886868080601f01602080910402602001604051908101604052809392919081815260200183838082843760009201919091525061205692505050565b600a5460009073ffffffffffffffffffffffffffffffffffffffff16331461095b5760405162461bcd60e51b815260206004820152600a60248201527f6f6e6c79206f776e657200000000000000000000000000000000000000000000604482015260640161069f565b61096482613307565b602081015173ffffffffffffffffffffffffffffffffffffffff166109cb5760405162461bcd60e51b815260206004820152601460248201527f7a65726f20726f7574657220636f6e7472616374000000000000000000000000604482015260640161069f565b6000816040015167ffffffffffffffff1611610a295760405162461bcd60e51b815260206004820152601c60248201527f7a65726f20636f6e6669726d6174696f6e7320697320756e7361666500000000604482015260640161069f565b80515115801590610a3d5750805151608010155b610a895760405162461bcd60e51b815260206004820152601760248201527f77726f6e6720426c6f636b436861696e206c656e677468000000000000000000604482015260640161069f565b60008411610ad95760405162461bcd60e51b815260206004820152600c60248201527f7a65726f20636861696e49440000000000000000000000000000000000000000604482015260640161069f565b60008481526003602052604090208390610af38282613577565b905050610aff8461200a565b610b3657600080546001810182559080527f290decd9548b62a8d60345a988386fc84ba6bc95484008f6362f93160ef3e563018490555b5060019392505050565b73ffffffffffffffffffffffffffffffffffffffff81166000908152600960205260409020805460609190610b74906133f4565b80601f0160208091040260200160405190810160405280929190818152602001828054610ba0906133f4565b8015610bed5780601f10610bc257610100808354040283529160200191610bed565b820191906000526020600020905b815481529060010190602001808311610bd057829003601f168201915b50505050509050919050565b600a5460009073ffffffffffffffffffffffffffffffffffffffff163314610c635760405162461bcd60e51b815260206004820152600a60248201527f6f6e6c79206f776e657200000000000000000000000000000000000000000000604482015260640161069f565b73ffffffffffffffffffffffffffffffffffffffff8416610cc65760405162461bcd60e51b815260206004820152600c60248201527f7a65726f20616464726573730000000000000000000000000000000000000000604482015260640161069f565b73ffffffffffffffffffffffffffffffffffffffff84166000908152600960205260409020610cf6908484612a10565b506001949350505050565b600a5460009073ffffffffffffffffffffffffffffffffffffffff163314610d6b5760405162461bcd60e51b815260206004820152600a60248201527f6f6e6c79206f776e657200000000000000000000000000000000000000000000604482015260640161069f565b6000610dac84848080601f01602080910402602001604051908101604052809392919081815260200183838082843760009201919091525061205692505050565b905060005b600154811015610e8f578160018281548110610dcf57610dcf6134ff565b90600052602060002001541415610e7f575b6001805490610df19083906132a4565b1015610e4d576001610e0382826132a4565b81548110610e1357610e136134ff565b906000526020600020015460018281548110610e3157610e316134ff565b600091825260209091200155610e4681613448565b9050610de1565b6001805480610e5e57610e5e6134d0565b60019003818190600052602060002001600090559055600192505050610e96565b610e8881613448565b9050610db1565b5060009150505b92915050565b6060600760008581526020019081526020016000208383604051610ec1929190613074565b90815260200160405180910390208054610eda906133f4565b80601f0160208091040260200160405190810160405280929190818152602001828054610f06906133f4565b8015610f535780601f10610f2857610100808354040283529160200191610f53565b820191906000526020600020905b815481529060010190602001808311610f3657829003601f168201915b505050505090509392505050565b6001546060908067ffffffffffffffff811115610f8057610f8061352e565b604051908082528060200260200182016040528015610fb357816020015b6060815260200190600190039081610f9e5790505b50915060005b8181101561101557610fe760018281548110610fd757610fd76134ff565b9060005260206000200154612277565b838281518110610ff957610ff96134ff565b60200260200101819052508061100e90613448565b9050610fb9565b505090565b600a5473ffffffffffffffffffffffffffffffffffffffff1633146110815760405162461bcd60e51b815260206004820152600a60248201527f6f6e6c79206f776e657200000000000000000000000000000000000000000000604482015260640161069f565b6040517f22590461e7ba17e1fe7580cb0ea47f283d3b2248f04873dfbe926d08fe4c5ab990600090a1565b600a5473ffffffffffffffffffffffffffffffffffffffff1633146111135760405162461bcd60e51b815260206004820152600a60248201527f6f6e6c79206f776e657200000000000000000000000000000000000000000000604482015260640161069f565b600061115483838080601f01602080910402602001604051908101604052809392919081815260200183838082843760009201919091525061205692505050565b60008181526002602052604081209192505b81548110156111ed576000828281548110611183576111836134ff565b600091825260208083206040805180820182526002909402909101805480855260019091015473ffffffffffffffffffffffffffffffffffffffff908116948401948552908552600883528185209351168452919052812055506111e681613448565b9050611166565b50600082815260026020526040812061120591612ab2565b50505050565b60606002600061125085858080601f01602080910402602001604051908101604052809392919081815260200183838082843760009201919091525061205692505050565b8152602001908152602001600020805480602002602001604051908101604052809291908181526020016000905b828210156112d357600084815260209081902060408051808201909152600285029091018054825260019081015473ffffffffffffffffffffffffffffffffffffffff1682840152908352909201910161127e565b50505050905092915050565b600a5460009073ffffffffffffffffffffffffffffffffffffffff1633146113495760405162461bcd60e51b815260206004820152600a60248201527f6f6e6c79206f776e657200000000000000000000000000000000000000000000604482015260640161069f565b60006002600061138e87878080601f01602080910402602001604051908101604052809392919081815260200183838082843760009201919091525061205692505050565b8152602001908152602001600020905060005b815481101561158057838282815481106113bd576113bd6134ff565b9060005260206000209060020201600001541415611570576000848152600860205260408120835482908590859081106113f9576113f96134ff565b600091825260208083206001600290930201919091015473ffffffffffffffffffffffffffffffffffffffff1683528201929092526040019020555b81546114428260016132a4565b10156114f357816114548260016132a4565b81548110611464576114646134ff565b9060005260206000209060020201828281548110611484576114846134ff565b600091825260209091208254600290920201908155600191820154910180547fffffffffffffffffffffffff00000000000000000000000000000000000000001673ffffffffffffffffffffffffffffffffffffffff9092169190911790556114ec81613448565b9050611435565b81805480611503576115036134d0565b60008281526020812060027fffffffffffffffffffffffffffffffffffffffffffffffffffffffffffffffff90930192830201908155600190810180547fffffffffffffffffffffffff0000000000000000000000000000000000000000169055915592506107f2915050565b61157981613448565b90506113a1565b50600095945050505050565b6115c56040518060c001604052806000815260200160008152602001600081526020016000815260200160008152602001600081525090565b6006600061160886868080601f01602080910402602001604051908101604052809392919081815260200183838082843760009201919091525061205692505050565b815260200190815260200160002060008381526020019081526020016000206040518060c0016040529081600082015481526020016001820154815260200160028201548152602001600382015481526020016004820154815260200160058201548152505090509392505050565b60006107f26116bb84848080601f01602080910402602001604051908101604052809392919081815260200183838082843760009201919091525061205692505050565b6123ae565b6000806002600061170687878080601f01602080910402602001604051908101604052809392919081815260200183838082843760009201919091525061205692505050565b8152602001908152602001600020905060005b81548110156115805783828281548110611735576117356134ff565b90600052602060002090600202016000015414156117935781818154811061175f5761175f6134ff565b600091825260209091206001600290920201015473ffffffffffffffffffffffffffffffffffffffff1692506107f2915050565b61179c81613448565b9050611719565b600a5460009073ffffffffffffffffffffffffffffffffffffffff16331461180d5760405162461bcd60e51b815260206004820152600a60248201527f6f6e6c79206f776e657200000000000000000000000000000000000000000000604482015260640161069f565b61186661184f86868080601f01602080910402602001604051908101604052809392919081815260200183838082843760009201919091525061205692505050565b8461185f36869003860186612e5f565b600061205d565b95945050505050565b600a5460009073ffffffffffffffffffffffffffffffffffffffff1633146118d95760405162461bcd60e51b815260206004820152600a60248201527f6f6e6c79206f776e657200000000000000000000000000000000000000000000604482015260640161069f565b600061191a85858080601f01602080910402602001604051908101604052809392919081815260200183838082843760009201919091525061205692505050565b600081815260056020908152604080832087845282528083208151606081018352815460ff81168252610100900473ffffffffffffffffffffffffffffffffffffffff1693810193909352600101549082015291925061186691839186919061205d565b600082815260086020908152604080832073ffffffffffffffffffffffffffffffffffffffff851684529091529020546060906107f290612277565b600a5473ffffffffffffffffffffffffffffffffffffffff163314611a215760405162461bcd60e51b815260206004820152600a60248201527f6f6e6c79206f776e657200000000000000000000000000000000000000000000604482015260640161069f565b611205611a6385858080601f01602080910402602001604051908101604052809392919081815260200183838082843760009201919091525061205692505050565b83836123fa565b600a5460009073ffffffffffffffffffffffffffffffffffffffff163314611ad45760405162461bcd60e51b815260206004820152600a60248201527f6f6e6c79206f776e657200000000000000000000000000000000000000000000604482015260640161069f565b611866611b1686868080601f01602080910402602001604051908101604052809392919081815260200183838082843760009201919091525061205692505050565b84611b2636869003860186612de5565b61265d565b60606000805480602002602001604051908101604052809291908181526020018280548015611b7957602002820191906000526020600020905b815481526020019060010190808311611b65575b5050505050905090565b600a5460009073ffffffffffffffffffffffffffffffffffffffff163314611bed5760405162461bcd60e51b815260206004820152600a60248201527f6f6e6c79206f776e657200000000000000000000000000000000000000000000604482015260640161069f565b6000611c2e84848080601f01602080910402602001604051908101604052809392919081815260200183838082843760009201919091525061205692505050565b9050611c39816123ae565b15611c865760405162461bcd60e51b815260206004820152600e60248201527f746f6b656e204944206578697374000000000000000000000000000000000000604482015260640161069f565b60018054808201825560008290527fb10e2d527612073b26eecdfd717e6a320cf44b4afac2b0732d9fcbe2b7fa0cf601919091559392505050565b600a5460009073ffffffffffffffffffffffffffffffffffffffff163314611d2b5760405162461bcd60e51b815260206004820152600a60248201527f6f6e6c79206f776e657200000000000000000000000000000000000000000000604482015260640161069f565b60008611611d7b5760405162461bcd60e51b815260206004820152600c60248201527f7a65726f20636861696e49440000000000000000000000000000000000000000604482015260640161069f565b8282600760008981526020019081526020016000208787604051611da0929190613074565b908152604051908190036020019020611dba929091612a10565b5060019695505050505050565b600a5460009073ffffffffffffffffffffffffffffffffffffffff163314611e315760405162461bcd60e51b815260206004820152600a60248201527f6f6e6c79206f776e657200000000000000000000000000000000000000000000604482015260640161069f565b60005b600054811015611f10578260008281548110611e5257611e526134ff565b90600052602060002001541415611f00575b600054611e728260016132a4565b1015611ecf576000611e858260016132a4565b81548110611e9557611e956134ff565b906000526020600020015460008281548110611eb357611eb36134ff565b600091825260209091200155611ec881613448565b9050611e64565b6000805480611ee057611ee06134d0565b600190038181906000526020600020016000905590556001915050919050565b611f0981613448565b9050611e34565b50600092915050565b600a5473ffffffffffffffffffffffffffffffffffffffff163314611f805760405162461bcd60e51b815260206004820152600a60248201527f6f6e6c79206f776e657200000000000000000000000000000000000000000000604482015260640161069f565b60405173ffffffffffffffffffffffffffffffffffffffff82169033907f8be0079c531659141344cd1fd0a4f28419497f9722a3daafe3b4186f6b6457e090600090a3600a80547fffffffffffffffffffffffff00000000000000000000000000000000000000001673ffffffffffffffffffffffffffffffffffffffff92909216919091179055565b6000805b600054811015611f1057826000828154811061202c5761202c6134ff565b906000526020600020015414156120465750600192915050565b61204f81613448565b905061200e565b6020015190565b6020820151600090839073ffffffffffffffffffffffffffffffffffffffff1661208657600080fd5b856120d35760405162461bcd60e51b815260206004820152600d60248201527f656d70747920746f6b656e494400000000000000000000000000000000000000604482015260640161069f565b600085116121235760405162461bcd60e51b815260206004820152600c60248201527f7a65726f20636861696e49440000000000000000000000000000000000000000604482015260640161069f565b82156121a4576000868152600560209081526040808320888452825291829020865181549288015173ffffffffffffffffffffffffffffffffffffffff16610100027fffffffffffffffffffffff00000000000000000000000000000000000000000090931660ff909116179190911781559085015160019091015561226b565b6000868152600460209081526040808320888452825291829020865181549288015173ffffffffffffffffffffffffffffffffffffffff16610100027fffffffffffffffffffffff00000000000000000000000000000000000000000090931660ff9091161791909117815590850151600190910155612223866123ae565b61225c576001805480820182556000919091527fb10e2d527612073b26eecdfd717e6a320cf44b4afac2b0732d9fcbe2b7fa0cf6018690555b61226b868686602001516123fa565b50600195945050505050565b606060005b60208160ff161080156122c85750828160ff166020811061229f5761229f6134ff565b1a60f81b7fff000000000000000000000000000000000000000000000000000000000000001615155b156122dd576122d681613481565b905061227c565b60008160ff1667ffffffffffffffff8111156122fb576122fb61352e565b6040519080825280601f01601f191660200182016040528015612325576020820181803683370190505b50905060005b8260ff168160ff1610156123a657848160ff166020811061234e5761234e6134ff565b1a60f81b828260ff1681518110612367576123676134ff565b60200101907effffffffffffffffffffffffffffffffffffffffffffffffffffffffffffff1916908160001a90535061239f81613481565b905061232b565b509392505050565b6000805b600154811015611f105782600182815481106123d0576123d06134ff565b906000526020600020015414156123ea5750600192915050565b6123f381613448565b90506123b2565b826124475760405162461bcd60e51b815260206004820152600d60248201527f656d70747920746f6b656e494400000000000000000000000000000000000000604482015260640161069f565b600082116124975760405162461bcd60e51b815260206004820152600c60248201527f7a65726f20636861696e49440000000000000000000000000000000000000000604482015260640161069f565b6000838152600260205260408120905b81548110156125c957838282815481106124c3576124c36134ff565b90600052602060002090600202016000015414156125b95760008282815481106124ef576124ef6134ff565b600091825260209091206001600290920201015473ffffffffffffffffffffffffffffffffffffffff9081169150841681146125b15783838381548110612538576125386134ff565b6000918252602080832060029290920290910160010180547fffffffffffffffffffffffff00000000000000000000000000000000000000001673ffffffffffffffffffffffffffffffffffffffff94851617905587825260088152604080832085851684529091528082208290559186168152208690555b505050505050565b6125c281613448565b90506124a7565b5060408051808201825284815273ffffffffffffffffffffffffffffffffffffffff93841660208083018281528554600180820188556000978852838820955160029092029095019081559051930180547fffffffffffffffffffffffff00000000000000000000000000000000000000001693909616929092179094559382526008845280822092825291909252902055565b60008160008160000151116126b45760405162461bcd60e51b815260206004820152601060248201527f7a65726f204d6178696d756d5377617000000000000000000000000000000000604482015260640161069f565b60008160200151116127085760405162461bcd60e51b815260206004820152601060248201527f7a65726f204d696e696d756d5377617000000000000000000000000000000000604482015260640161069f565b600081604001511161275c5760405162461bcd60e51b815260206004820152601660248201527f7a65726f2042696756616c75655468726573686f6c6400000000000000000000604482015260640161069f565b6020810151815110156127b15760405162461bcd60e51b815260206004820152601960248201527f4d6178696d756d53776170203c204d696e696d756d5377617000000000000000604482015260640161069f565b8060a00151816080015110156128095760405162461bcd60e51b815260206004820152601f60248201527f4d6178696d756d53776170466565203c204d696e696d756d5377617046656500604482015260640161069f565b8060a00151816020015110156128615760405162461bcd60e51b815260206004820152601c60248201527f4d696e696d756d53776170203c204d696e696d756d5377617046656500000000604482015260640161069f565b620f42408160600151106128b75760405162461bcd60e51b815260206004820181905260248201527f53776170466565526174655065724d696c6c696f6e203e3d2031303030303030604482015260640161069f565b6000816060015111806128cc575060a0810151155b6129185760405162461bcd60e51b815260206004820152601460248201527f77726f6e67204d696e696d756d53776170466565000000000000000000000000604482015260640161069f565b846129655760405162461bcd60e51b815260206004820152600d60248201527f656d70747920746f6b656e494400000000000000000000000000000000000000604482015260640161069f565b600084116129b55760405162461bcd60e51b815260206004820152600c60248201527f7a65726f20636861696e49440000000000000000000000000000000000000000604482015260640161069f565b50506000928352600660209081526040808520938552928152928290208151815592810151600180850191909155918101516002840155606081015160038401556080810151600484015560a0015160059092019190915590565b828054612a1c906133f4565b90600052602060002090601f016020900481019282612a3e5760008555612aa2565b82601f10612a75578280017fffffffffffffffffffffffffffffffffffffffffffffffffffffffffffffff00823516178555612aa2565b82800160010185558215612aa2579182015b82811115612aa2578235825591602001919060010190612a87565b50612aae929150612ad6565b5090565b5080546000825560020290600052602060002090810190612ad39190612aeb565b50565b5b80821115612aae5760008155600101612ad7565b5b80821115612aae57600081556001810180547fffffffffffffffffffffffff0000000000000000000000000000000000000000169055600201612aec565b8035610733816137da565b60008083601f840112612b4757600080fd5b50813567ffffffffffffffff811115612b5f57600080fd5b602083019150836020828501011115612b7757600080fd5b9250929050565b8035610733816137fc565b600060208284031215612b9b57600080fd5b81356107f2816137da565b600080600060408486031215612bbb57600080fd5b8335612bc6816137da565b9250602084013567ffffffffffffffff811115612be257600080fd5b612bee86828701612b35565b9497909650939450505050565b60008060208385031215612c0e57600080fd5b823567ffffffffffffffff811115612c2557600080fd5b612c3185828601612b35565b90969095509350505050565b600080600060408486031215612c5257600080fd5b833567ffffffffffffffff811115612c6957600080fd5b612c7586828701612b35565b909790965060209590950135949350505050565b60008060008060608587031215612c9f57600080fd5b843567ffffffffffffffff811115612cb657600080fd5b612cc287828801612b35565b909550935050602085013591506040850135612cdd816137da565b939692955090935050565b600080600080848603610100811215612d0057600080fd5b853567ffffffffffffffff811115612d1757600080fd5b612d2388828901612b35565b9096509450506020860135925060c07fffffffffffffffffffffffffffffffffffffffffffffffffffffffffffffffc082011215612d6057600080fd5b509295919450926040019150565b60008060008084860360a0811215612d8557600080fd5b853567ffffffffffffffff811115612d9c57600080fd5b612da888828901612b35565b9096509450506020860135925060607fffffffffffffffffffffffffffffffffffffffffffffffffffffffffffffffc082011215612d6057600080fd5b600060c08284031215612df757600080fd5b60405160c0810181811067ffffffffffffffff82111715612e1a57612e1a61352e565b8060405250823581526020830135602082015260408301356040820152606083013560608201526080830135608082015260a083013560a08201528091505092915050565b600060608284031215612e7157600080fd5b6040516060810181811067ffffffffffffffff82111715612e9457612e9461352e565b604052823560ff81168114612ea857600080fd5b81526020830135612eb8816137da565b60208201526040928301359281019290925250919050565b600060208284031215612ee257600080fd5b5035919050565b60008060408385031215612efc57600080fd5b823591506020830135612f0e816137da565b809150509250929050565b600080600060408486031215612f2e57600080fd5b83359250602084013567ffffffffffffffff811115612be257600080fd5b600080600080600060608688031215612f6457600080fd5b85359450602086013567ffffffffffffffff80821115612f8357600080fd5b612f8f89838a01612b35565b90965094506040880135915080821115612fa857600080fd5b50612fb588828901612b35565b969995985093965092949392505050565b60008060408385031215612fd957600080fd5b82359150602083013567ffffffffffffffff811115612ff757600080fd5b830160808186031215612f0e57600080fd5b6000815180845260005b8181101561302f57602081850181015186830182015201613013565b81811115613041576000602083870101525b50601f017fffffffffffffffffffffffffffffffffffffffffffffffffffffffffffffffe0169290920160200192915050565b8183823760009101908152919050565b6000602080830181845280855180835260408601915060408160051b870101925083870160005b828110156130f7577fffffffffffffffffffffffffffffffffffffffffffffffffffffffffffffffc08886030184526130e5858351613009565b945092850192908501906001016130ab565b5092979650505050505050565b602080825282518282018190526000919060409081850190868401855b8281101561315c5781518051855286015173ffffffffffffffffffffffffffffffffffffffff16868501529284019290850190600101613121565b5091979650505050505050565b6020808252825182820181905260009190848201906040850190845b818110156131a157835183529284019291840191600101613185565b50909695505050505050565b6020815260006107f26020830184613009565b6020815260008251608060208401526131dc60a0840182613009565b905073ffffffffffffffffffffffffffffffffffffffff6020850151166040840152604084015167ffffffffffffffff808216606086015280606087015116608086015250508091505092915050565b6040516080810167ffffffffffffffff8111828210171561324f5761324f61352e565b60405290565b604051601f82017fffffffffffffffffffffffffffffffffffffffffffffffffffffffffffffffe016810167ffffffffffffffff8111828210171561329c5761329c61352e565b604052919050565b600082198211156132b7576132b76134a1565b500190565b601f82111561330257600081815260208120601f850160051c810160208610156132e35750805b601f850160051c820191505b818110156125b1578281556001016132ef565b505050565b60006080823603121561331957600080fd5b61332161322c565b823567ffffffffffffffff8082111561333957600080fd5b9084019036601f83011261334c57600080fd5b81356020828211156133605761336061352e565b613390817fffffffffffffffffffffffffffffffffffffffffffffffffffffffffffffffe0601f85011601613255565b925081835236818386010111156133a657600080fd5b818185018285013760008183850101528285526133c4818801612b2a565b81860152505050506133d860408401612b7e565b60408201526133e960608401612b7e565b606082015292915050565b600181811c9082168061340857607f821691505b60208210811415613442577f4e487b7100000000000000000000000000000000000000000000000000000000600052602260045260246000fd5b50919050565b60007fffffffffffffffffffffffffffffffffffffffffffffffffffffffffffffffff82141561347a5761347a6134a1565b5060010190565b600060ff821660ff811415613498576134986134a1565b60010192915050565b7f4e487b7100000000000000000000000000000000000000000000000000000000600052601160045260246000fd5b7f4e487b7100000000000000000000000000000000000000000000000000000000600052603160045260246000fd5b7f4e487b7100000000000000000000000000000000000000000000000000000000600052603260045260246000fd5b7f4e487b7100000000000000000000000000000000000000000000000000000000600052604160045260246000fd5b60008135610e96816137da565b60008135610e96816137fc565b81357fffffffffffffffffffffffffffffffffffffffffffffffffffffffffffffffe18336030181126135a957600080fd5b8201803567ffffffffffffffff8111156135c257600080fd5b602081360381840113156135d557600080fd5b6135e9826135e386546133f4565b866132bc565b6000601f83116001811461363d576000841561360757508482018301355b7fffffffffffffffffffffffffffffffffffffffffffffffffffffffffffffffff600386901b1c1916600185901b1786556136d6565b6000868152602090207fffffffffffffffffffffffffffffffffffffffffffffffffffffffffffffffe0851690835b8281101561368d57878501860135825593850193600190910190850161366c565b50858210156136ca577fffffffffffffffffffffffffffffffffffffffffffffffffffffffffffffffff60f88760031b161c198585890101351681555b505060018460011b0186555b505060018401925061372e6136ec82870161355d565b84547fffffffffffffffffffffffff00000000000000000000000000000000000000001673ffffffffffffffffffffffffffffffffffffffff91909116178455565b505061378c61373f6040850161356a565b82547fffffffff0000000000000000ffffffffffffffffffffffffffffffffffffffff1660a09190911b7bffffffffffffffff000000000000000000000000000000000000000016178255565b506137d661379c6060840161356a565b6002830167ffffffffffffffff82167fffffffffffffffffffffffffffffffffffffffffffffffff00000000000000008254161781555050565b5050565b73ffffffffffffffffffffffffffffffffffffffff81168114612ad357600080fd5b67ffffffffffffffff81168114612ad357600080fdfea2646970667358221220c895dfacc7e2758ab77e90fa194eed371d0d619be14165d36520bf651247780164736f6c63430008060033","linkReferences":{},"deployedLinkReferences":{}}